:100000000C94E60A0C940E0B0C940E0B0C940E0B35
:100010000C940E0B0C940E0B0C940E0B0C940E0BFC
:100020000C940E0B0C940E0B0C940E0B0C940E0BEC
:100030000C940E0B0C940E0B0C940E0B0C940E0BDC
:100040000C94491C0C940E0B0C940E0B0C940E0B80
:100050000C940E0B0C940E0B0C940E0B0C940E0BBC
:100060000C940E0B0C940E0B05A84CCDB2D44EB9CB
:100070003836A9020C50B9918688083CA6AAAA2A4B
:10008000BE000000803F00004910F0168804B42A2A
:1000900095A27D9EF3944491547515BA0080020C8C
:1000A000008048256F7B4DD2F9FC3CDF9E7CCE3F23
:1000B000EF4F92EFFBF73C0401044545C4714454F3
:1000C0004641EF73F5EDBACE49BCB67B963F4B9CEB
:1000D000D6EDDB4B3AC9AA5D9B24EFDFF67FD55600
:1000E000EB12B5F3BAD61177496ADBB7ADDABFAD1B
:1000F000DA56D2A9DC929C883449AB0000E080013A
:10010000B875DE1E4FCEB7C7BB3B4FDE73C95B0869
:1001100092202DE92A4942DF626DF1F6EF93F72430
:100120002C091F9F2746DBA3ADD0BEA8D4F6344EC2
:10013000DD9A2C499AAC0107AEEB000000100008D4
:10014000000800000000000000000002020202029D
:100150000202020202000000000000000101010191
:10016000010101010101010101010101010101017F
:100170000101010101010000000001080101090164
:10018000010105010105010101010105050101014F
:1001900001010101050100000000000F018096111E
:1001A00080FFB103012C2DB203012C2DB306012CCD
:1001B0002D012C2DB40107C003A20284C101C5C2C8
:1001C000020A00C3028A2AC4028AEEC5010E200078
:1001D0003601C83A0105022A040000007F2B040002
:1001E00000009F04E010021C07123732292D292538
:1001F0002B3900010310E110031D07062E2C292DB9
:100200002E2E373F0000021013800A29800A640056
:10021000C8002C01400154017C017C01D201F00195
:10022000220222024A025E0286028602AE02C20256
:10023000EA022C035E037C03A403A403CC03E003C3
:1002400008040804300444049A04A404D604EA040C
:100250001C05260558056C0594059405BC05120679
:1002600044064E0676069406C606D006F8060C0727
:10027000340734078A07A807FE07FE0754087208E8
:10028000C808C8081409280950099209C4091A0A9B
:10029000420A840AB60A0C0B340B6C0B940BA80BA5
:1002A000FE0B080C3A0C4E0C800C8A0CBC0CD00CCB
:1002B000F80CF80C200D760DA80DB20DDA0DF80D26
:1002C0002A0E340E5C0E700E980E980EEE0E0C0F69
:1002D0003E0F3E0F700F8E0FC00FC00FDE0FE80FE6
:1002E0000610481070108410A210AC10D410E81042
:1002F0000611061124112E117A118411AC11B611B8
:10030000DE11E81110121A12381238125412D39C4E
:100310000000EF7B24DD694A863156FB02000300B2
:10032000040005010600080009000A000B000C008B
:100330000E000F011001110112011400150016002A
:10034000170018001A001B001C001D011E002000D1
:100350002100220023012401260027012800290171
:100360002A002C002D012E002F0030003201330016
:10037000340135013601380039003A003B003C00B9
:1003800002000301040005010600080009010A003B
:100390000B010C000E000F011001110112011400DD
:1003A00015011600170118001A001B011C001D0181
:1003B0001E00200121012200230124012600270123
:1003C000280029012A002C002D012E002F013000C9
:1003D00032003300340035003600380039013A016C
:1003E0003B013C0002000300040005000600080079
:1003F00009000A000B000C000E000F001000110095
:100400001200140015011600170018001A001B0135
:100410001C001D001E0020002100220023002400DB
:1004200026002700280029002A002C002D002E007D
:100430002F0130003201330134013501360138001B
:1004400039003A003B003C004702480249024A0298
:100450004B025503560357035803590347024801FB
:1004600049024A014B0255035601570358015903EB
:1004700004030A03100316031C03220328032E039C
:1004800034033A034701480249014A024B0155012E
:1004900056035701580359010403060208020A03D0
:1004A0000C020E02100312021402160318021A02A2
:1004B0001C031E02200222032402260228032A0211
:1004C0002C022E03300232023403360238023A0381
:1004D0003D003E003F004000410047024802490203
:1004E0004A024B02550156015701580159013D007E
:1004F0003E013F01400141004702480149024A01D3
:100500004B025501560357015803590304030A03CC
:10051000100316031C03220328032E0334033A039B
:100520003D003E003F0040004100470248014901B4
:100530004A014B0255015601570158015901040364
:100540000A03100316031C03220328032E0334039B
:100550003A034702480249024A024B025603570334
:10056000580359015A034702480149024A014B0105
:1005700056035701580359015A0304030A03100391
:1005800016031C03220328032E0334033A034701F6
:10059000480249014A024B025603570358035903C4
:1005A0005A0104030A03100316031C032203280341
:1005B0002E0334033A034702480149014A014B0123
:1005C0005501560157015801590147024802490295
:1005D0004A024B02550156015701580159010403C3
:1005E0000A03100316031C03220328032E033403FB
:1005F0003A034702480149014A014B01550156019E
:100600005701580159010404060408040A040C04A3
:100610000E04100412041404160418041A041C0412
:100620001E04200422042404260428042A042C0482
:100630002E04300432043404360438043A043D00F5
:100640003E003F004001410004030A03100316036B
:100650001C03220328032E0334033A033D003E010A
:100660003F00400141004702480249014A014B0155
:10067000550356035703580359033D003E013F00FD
:10068000400041004701480149024A024B0255031C
:10069000560157035801590304030A0310031603B4
:1006A0001C03220328032E0334033A0347024802A3
:1006B00049014A014B01550156035701580359019D
:1006C00004030A03100316031C03220328032E034A
:1006D00034033A034701480249014A014B025501DC
:1006E00056035703580359034702480149024A0178
:1006F0004B025501560357015801590304030A03DD
:10070000100316031C03220328032E0334033A03A9
:100710004702480149014A024B015501560357035C
:100720005803590304030A03100316031C0322038E
:1007300028032E0334033A034701480149014A01C3
:100740004B0155035603570358035903470148010A
:1007500049014A014B0155015603570158015903FC
:100760000403060208020A030C020E02100312021E
:100770001402160318021A021C031E02200222038E
:100780002402260228032A022C022E0330023202FF
:100790003403360238023A033D013E003F01400176
:1007A00041014701480149014A014B0155015603E6
:1007B0005703580359033D003E003F0040004100ED
:1007C00004030A03100316031C03220328032E0349
:1007D00034033A033D013E013F014001410147011D
:1007E000480249024A024B0155015601570158017E
:1007F00059014702480149014A014B02550156017E
:1008000057015801590104030A03100316031C037E
:10081000220328032E0334033A033D003E003F0029
:10082000400041004702480149024A024B0255017B
:1008300056015701580159013D003E013F01400159
:10084000410004030A03100316031C0322032803B8
:100850002E0334033A033D003E003F0040004100B8
:100860004702480249024A024B025501560157030A
:10087000580359014702480149024A014B015501F9
:10088000560357015801590304030A0310031603C2
:100890001C03220328032E0334033A0347014802B2
:1008A00049014A024B0255015603570358035903A5
:1008B00004030A03100316031C03220328032E0358
:1008C00034033A034702480249024A024B025501E7
:1008D00056035703580359030404060408040A0482
:1008E0000C040E04100412041404160418041A0450
:1008F0001C041E04200422042404260428042A04C0
:100900002C042E04300432043404360438043A042F
:100910003D013E003F0140014101470248014902BB
:100920004A014B025501560357015801590104036E
:100930000A03100316031C03220328032E033403A7
:100940003A033D003E003F0040004100470248019D
:1009500049014A014B0255015601570358035903F7
:100960003D013E013F014001410104030A03100320
:1009700016031C03220328032E0334033A03470102
:10098000480249024A024B025501560357035803D5
:1009900059033D003E003F0040014100470248012D
:1009A00049024A014B0155015603570158015903A9
:1009B00004030A03100316031C03220328032E0357
:1009C00034033A033D003E013F004001410047012E
:1009D000480249024A024B02550356035703580383
:1009E00059033D003E013F004000410004030A035B
:1009F000100316031C03220328032E0334033A03B7
:100A00004702480149014A014B015501560157016E
:100A1000580159014702480249024A024B02550156
:100A2000560157015801590104030A031003160324
:100A30001C03220328032E0334033A034702480110
:100A400049014A014B01550156015701580159010D
:100A50000403060208020A030C020E02100312022B
:100A60001402160318021A021C031E02200222039B
:100A70002402260228032A022C022E03300232020C
:100A80003403360238023A033D003E013F00400085
:100A900041004701480149014A014B0155035603F2
:100AA0005703580359033D003E013F0040014100F8
:100AB0004701480149014A014B01550156015701BF
:100AC000580159030403060508050A030C050E0521
:100AD000100312051405160318051A051C031E053C
:100AE000200522032405260528032A052C052E03AC
:100AF000300532053403360538053A033D003E0023
:100B00003F00400141004701480149014A014B01B2
:100B100055015601570158015903040306050805FC
:100B20000A030C050E05100312051405160318051B
:100B30001A051C031E05200522032405260528038B
:100B40002A052C052E0330053205340336053805F9
:100B50003A033D003E003F0040004100470248028A
:100B600049024A024B0155015603570358035903E2
:100B70003D003E013F01400141004701480149015C
:100B80004A014B025501560357015801590304030A
:100B9000060508050A030C050E05100312051405C9
:100BA000160318051A051C031E052005220324053B
:100BB000260528032A052C052E03300532053403AB
:100BC000360538053A033D003E003F004000410035
:100BD0004702480249024A024B0155015603570396
:100BE000580359030403060508050A030C050E05FE
:100BF000100312051405160318051A051C031E051B
:100C0000200522032405260528032A052C052E038A
:100C1000300532053403360538053A0347024802E9
:100C200049024A024B025501560357035803590122
:100C30004701480149014A014B025501560157013C
:100C40005801590304030A03100316031C0322036B
:100C500028032E0334033A034702480249024A029A
:100C60004B02550156035703580359010404060467
:100C700008040A040C040E041004120414041604DC
:100C800018041A041C041E0420042204240426044C
:100C900028042A042C042E043004320434043604BC
:100CA00038043A043D003E013F0040004100040387
:100CB0000A03100316031C03220328032E03340324
:100CC0003A033D003E013F00400141004701480119
:100CD00049014A014B015501560357035803590373
:100CE0000405060508050A050C050E051005120584
:100CF0001405160518051A051C051E0520052205F4
:100D00002405260528052A052C052E053005320563
:100D10003405360538053A053D003E003F004001E8
:100D200041004701480149014A014B015501560361
:100D300057015803590304030A03100316031C0345
:100D4000220328032E0334033A03470148014901D3
:100D50004A014B0155015603570358015903040535
:100D6000060508050A050C050E05100512051405F3
:100D7000160518051A051C051E0520052205240563
:100D8000260528052A052C052E05300532053405D3
:100D9000360538053A053D003E003F004001410060
:100DA00004030A03100316031C03220328032E0363
:100DB00034033A033D003E013F0040014100470239
:100DC000480249024A024B02550156015701580197
:100DD00059010405060508050A050C050E05100550
:100DE00012051405160518051A051C051E05200513
:100DF00022052405260528052A052C052E05300583
:100E000032053405360538053A053D003E013F0000
:100E1000400041004701480249024A014B01550385
:100E2000560357035803590304030A031003160318
:100E30001C03220328032E0334033A03470248020B
:100E400049024A024B025501560157015801590106
:100E50000405060508050A050C050E051005120512
:100E60001405160518051A051C051E052005220582
:100E70002405260528052A052C052E0530053205F2
:100E80003405360538053A0504030A031003160332
:100E90001C03220328032E0334033A0347024802AB
:100EA00049024A024B0256035703580359015A019B
:100EB0004702480149024A014B02560157015803B3
:100EC00059015A030403060208020A030C020E0227
:100ED000100312021402160318021A021C031E0247
:100EE000200222032402260228032A022C022E03B7
:100EF000300232023403360238023A033D003E012A
:100F00003F00400141004702480149014A014B02AC
:100F100056035703580359035A033D003E013F004F
:100F20004001410004030A03100316031C032203BB
:100F300028032E0334033A033D003E003F004000E7
:100F400041004702480149014A014B015501560140
:100F50005701580159014702480249024A024B020F
:100F60005501560157015801590104030A031003A2
:100F700016031C03220328032E0334033A033D0007
:100F80003E003F00400041004702480149014A013C
:100F90004B01550156015701580159013D003E01D1
:100FA0003F014001410004030A03100316031C0320
:100FB000220328032E0334033A033D003E003F0082
:100FC000400041004702480249024A024B025503D1
:100FD00056035703580359034702480149024A017F
:100FE0004B025501560357035801590104030A03E4
:100FF000100316031C03220328032E0334033A03B1
:101000004702480149014A014B0255035603570361
:101010005803590304030A03100316031C03220395
:1010200028032E0334033A034702480249024A02C6
:101030004B02550156035703580359030404060491
:1010400008040A040C040E04100412041404160408
:1010500018041A041C041E04200422042404260478
:1010600028042A042C042E043004320434043604E8
:1010700038043A043D003E013F0040014100470270
:10108000480149024A014B015501560357015803D3
:10109000590304030A03100316031C032203280345
:1010A0002E0334033A033D003E013F00400141005E
:1010B0004701480249014A024B02550156035703B2
:1010C000580159033D003E003F0040004100040329
:1010D0000A03100316031C03220328032E03340300
:1010E0003A034701480149014A014B0155015601A4
:1010F0005701580159013D003E003F0040014100A9
:101100004701480149014A014B0155015603570364
:101110005803590304030A03100316031C03220394
:1011200028032E0334033A033D003E013F004001F3
:1011300041004701480149014A014B01550156034D
:101140005701580159013D003E013F004000410058
:1011500004030A03100316031C03220328032E03AF
:1011600034033A034702480149014A014B01550142
:1011700056015703580359014702480249024A02DF
:101180004B025501560357015801590304030A0342
:10119000100316031C03220328032E0334033A030F
:1011A0004702480149014A014B01550156035703C3
:1011B000580359030403060208020A030C020E0234
:1011C000100312021402160318021A021C031E0254
:1011D000200222032402260228032A022C022E03C4
:1011E000300232023403360238023A033D003E0038
:1011F0003F00400141014702480249024A024B02B6
:10120000550156015701580159013D013E013F006A
:10121000400141014702480149024A014B0255037E
:10122000560357035803590304030A031003160314
:101230001C03220328032E0334033A033D003E001F
:101240003F00400041004702480149014A014B026A
:101250005501560157015801590104030A031003AF
:1012600016031C03220328032E0334033A033D0014
:101270003E003F00400041004701480249024A0247
:101280004B01550156065701580659013D003E01D4
:101290003F01400141004702480149014A014B0218
:1012A0005501560657015806590104030A03100355
:1012B00016031C03220328032E0334033A033D00C4
:1012C0003E003F00400041004702480149014A01F9
:1012D0004B025501560657015806590104030A03EB
:1012E000100316031C03220328032E0334033A03BE
:1012F0004702480249024A024B024701480149029B
:101300004A014B0104030A03100316031C032203C2
:1013100028032E0334033A034702480249024A02D3
:101320004B020404060408040A040C040E0410040E
:1013300012041404160418041A041C041E042004C5
:1013400022042404260428042A042C042E04300435
:1013500032043404360438043A043D003E003F00B1
:101360004001410104030A03100316031C03220376
:1013700028032E0334033A033D013E013F004001A0
:1013800041014701480149014A014B013D003E002E
:101390003F00400041004701480149014A014B011B
:1013A00004030A03100316031C03220328032E035D
:1013B00034033A034701480149014A014B013D000A
:1013C0003E003F004001410004030A0310031603DE
:1013D0001C03220328032E0334033A033D003E017D
:1013E0003F00400141004701480249024A024B01C7
:1013F0003D003E013F0040004100470248014901D5
:101400004A014B0204030A03100316031C032203C0
:1014100028032E0334033A034702480149024A02D3
:101420004B0204030A03100316031C0322032803C0
:101430002E0334033A034702480249024A024B0290
:101440004702480149024A014B010403060208020F
:101450000A030C020E0210031202140216031802F1
:101460001A021C031E022002220324022602280361
:101470002A022C022E0330023202340336023802D2
:101480003A033D003E003F00400141004701480251
:1014900049014A024B023D003E013F00400141002C
:1014A00004030A03100316031C03220328032E035C
:1014B00034033A033D003E013F0040004100470233
:1014C000480249024A024B024702480149024A01C6
:1014D0004B0204030A03100316031C032203280310
:1014E0002E0334033A033D003E003F00400041001C
:1014F0004702480149014A014B023D003E013F01BC
:101500004001410004030A03100316031C032203D5
:1015100028032E0334033A033D003E003F00400001
:1015200041004701480249024A024B024702480172
:1015300049024A014B0104030A03100316031C036A
:10154000220328032E0334033A03470148024902C9
:101550004A024B020A03100316031C03220328034A
:101560002E0334033A034702480149014A014B0163
:1015700000000000240027002A00000000002500D1
:1015800028002B000000000023002600290004048E
:10159000040404040404020202020202030303031B
:1015A00003030102040810204080010204081020F7
:1015B00001020408102000000007000201000003DF
:1015C00004060000000000000000241611241FBEC5
:1015D000CFEFD8E0DEBFCDBF11E0A0E0B1E0E0E5A5
:1015E000F0E402C005900D92A634B107D9F712E0DD
:1015F000A6E4B1E001C01D92A33EB107E1F715E1F9
:10160000CCECD5E104C02297FE010E94EB1FCA3C3E
:10161000D107C9F70E943A1C0C9426200C940000B4
:10162000AEE0B0E0E6E1FBE00C94FD1F0D891E8901
:1016300086E08C831A8309838FEF9FE79E838D83D7
:101640009E01275E3F4FCE0101966F89788DA901DB
:101650000E94340B2F813885020F131FF80110826E
:101660002E96E4E00C941920ABE0B0E0EAE3FBE056
:101670000C94EF1F3C012B015A01FC0117821682CA
:10168000838181FD03C06FEF7FEFC6C19AE0892E91
:101690001E010894211C311CF3012381F20123FD5A
:1016A000859123FF81912F01882309F4B2C18532EE
:1016B00039F423FD859123FF81912F01853229F48F
:1016C00090E0B3010E94270DE7CF982FFF24EE246E
:1016D0009924FFE1FF15D0F09B3269F09C3228F489
:1016E000903259F0933291F40EC09D3249F090330C
:1016F00069F441E024C052E0F52A84E0F82A28C0C9
:1017000098E0F92A25C0E0E1FE2A22C0F7FC29C0B2
:10171000892F80538A3070F4F6FE05C0989C902C77
:101720001124980E15C0E89CE02C1124E80EF0E27C
:10173000FF2A0EC09E3229F4F6FC6BC140E4F42A65
:1017400007C09C3619F450E8F52A02C0983649F4CF
:10175000F20123FD959123FF91912F01992309F027
:10176000B8CF892F8554833018F08052833038F4F5
:1017700044E050E0A40EB51E5FE359830FC09336DA
:1017800031F0933779F0933509F056C020C0F50158
:101790008081898342E050E0A40EB51E610101E022
:1017A00010E012C0F501C080D180F6FC03C06FEFDD
:1017B0007FEF02C0692D70E042E050E0A40EB51E3C
:1017C000C6010E941C0D8C015FE7F52214C0F501D3
:1017D000C080D180F6FC03C06FEF7FEF02C0692D9F
:1017E00070E042E050E0A40EB51EC6010E94110D4B
:1017F0008C0150E8F52AF3FE07C01AC080E290E0A1
:10180000B3010E94270DEA948E2D90E00817190766
:10181000A8F30EC0F601F7FC8591F7FE81916F01E8
:1018200090E0B3010E94270DE110EA9401501040AE
:101830000115110579F7EAC0943611F0993669F56A
:10184000F7FE08C0F501208131814281538184E097
:1018500090E00AC0F501808191819C01442737FD09
:101860004095542F82E090E0A80EB91E9FE6F92221
:1018700057FF09C050954095309521953F4F4F4FE8
:101880005F4FE0E8FE2ACA01B901A1012AE030E079
:101890000E94530DD82ED21840C0953729F41F2D21
:1018A0001F7E2AE030E01DC01F2D197F9F3661F09A
:1018B000903720F4983509F0ACC00FC0903739F05C
:1018C000983709F0A6C004C028E030E00AC01061D3
:1018D00014FD146020E130E004C014FD166020E126
:1018E00032E017FF08C0F501608171818281938128
:1018F00044E050E008C0F50180819181BC0180E0A6
:1019000090E042E050E0A40EB51EA1010E94530DEC
:10191000D82ED2188FE7F82EF122F6FE0BC05EEF1C
:10192000F522D91438F4F4FE07C0F2FC05C08FEE9E
:10193000F82202C01D2D01C0192DF4FE0DC0FE01BC
:10194000ED0DF11D8081803319F499EEF92208C064
:101950001F5FF2FE05C003C08F2D867809F01F5F60
:101960000F2DF3FC14C0F0FE0FC01E1510F09D2CBF
:101970000BC09D2C9E0C911A1E2D06C080E290E09B
:10198000B3010E94270D1F5F1E15C0F304C01E1572
:1019900010F4E11A01C0EE2404FF0FC080E390E0D0
:1019A000B3010E94270D02FF1DC001FD03C088E79F
:1019B00090E00EC088E590E00BC0802F867891F013
:1019C00001FF02C08BE201C080E2F7FC8DE290E0F3
:1019D000B3010E94270D06C080E390E0B3010E948E
:1019E000270D9A94D914C0F3DA94F101ED0DF11D8D
:1019F000808190E0B3010E94270DDD20A9F706C089
:101A000080E290E0B3010E94270DEA94EE20C1F736
:101A100043CEF30166817781CB012B96E2E10C94F2
:101A20000B20FC010590615070400110D8F78095A3
:101A300090958E0F9F1F0895FC016150704001909A
:101A40000110D8F7809590958E0F9F1F08950F93E2
:101A50001F93CF93DF938C01EB018B8181FF1BC020
:101A600082FF0DC02E813F818C819D81281739070F
:101A700064F4E881F9810193F983E88306C0E8857D
:101A8000F985802F0995892B31F48E819F810196EC
:101A90009F838E8302C00FEF1FEFC801DF91CF91AC
:101AA0001F910F910895FA01AA27283051F1203192
:101AB00081F1E8946F936E7F6E5F7F4F8F4F9F4FE2
:101AC000AF4FB1E03ED0B4E03CD0670F781F891F24
:101AD0009A1FA11D680F791F8A1F911DA11D6A0FF2
:101AE000711D811D911DA11D20D009F468943F91A5
:101AF0002AE0269F11243019305D3193DEF6CF01A4
:101B00000895462F4770405D4193B3E00FD0C9F769
:101B1000F6CF462F4F70405D4A3318F0495D31FDD6
:101B20004052419302D0A9F7EACFB4E0A695979529
:101B3000879577956795BA95C9F7009761057105FF
:101B400008959B01AC010A2E069457954795379549
:101B50002795BA95C9F7620F731F841F951FA01DA3
:101B60000895882321F08CB58F7D8CBD08958CB5A8
:101B700080628CBD08959CB5937F982B9CBD089581
:101B80002CB5382F33702C7F322B3CBD2DB590E017
:101B9000959587959595879581702E7F822B8DBD24
:101BA00008958AE061E00E94A61D8AE061E00E943B
:101BB0003A1D8CB580618CBD8CB580648CBD8DE088
:101BC00061E00E943A1D8BE061E00E943A1D089599
:101BD000FC01F695E795F695E795F695E795EA57B2
:101BE000FF4FE4918770907021E030E002C0220F37
:101BF000331F8A95E2F78E2F822308952F923F920A
:101C00004F925F926F927F928F929F92AF92BF920C
:101C1000CF92DF92EF92FF920F931F93DF93CF93B8
:101C200000D000D000D0CDB7DEB7D82E362E5A0166
:101C300029833A8338010E2D5F2C482CDA01EC9170
:101C4000B62FBF5FBE8311E0812E912C17C1632D8B
:101C5000CC2009F42FC12615370509F42BC1FA0150
:101C6000F695E795F695E795F695E795EA57FF4FD0
:101C70007491CA0187709070D40102C0AA0FBB1F73
:101C80008A95E2F77A2309F071E0B1E07B27CA0177
:101C90000296FC01F695E795F695E795F695E7959A
:101CA000EA57FF4F149187709070F40102C0EE0F55
:101CB000FF1F8A95E2F71E2309F011E0F1E01F27CC
:101CC000DA011396FD01F695E795F695E795F695F9
:101CD000E795EA57FF4FE491CD01877090709D839F
:101CE0008C83C4010C8002C0880F991F0A94E2F70C
:101CF000E82309F070E0CD010296FC01F695E79526
:101D0000F695E795F695E795EA57FF4F249087708B
:101D10009070F40102C0EE0FFF1F8A95E2F72E22A9
:101D200009F010E01396FD01F695E795F695E79515
:101D3000F695E795EA57FF4FE491CD0187709070D3
:101D40009D838C83C4010C8002C0880F991F0A9464
:101D5000E2F7E82309F070E0CD010296FC01F69568
:101D6000E795F695E795F695E795EA57FF4F2490A6
:101D700087709070F40102C0EE0FFF1F8A95E2F7A2
:101D80002E2209F010E01396FD01F695E795F695E1
:101D9000E795F695E795EA57FF4FE491CD018770F7
:101DA00090709D838C83C4010C8002C0880F991FA2
:101DB0000A94E2F7E82309F070E0CD010296FC01F5
:101DC000F695E795F695E795F695E795EA57FF4F6F
:101DD000249087709070F40102C0EE0FFF1F8A9567
:101DE000E2F72E2209F010E01396FD01F695E79533
:101DF000F695E795F695E795EA57FF4FE491CD0103
:101E0000877090709D838C83C4010C8002C0880F02
:101E1000991F0A94E2F7E82309F070E0CD010296D9
:101E2000FC01F695E795F695E795F695E795EA575F
:101E3000FF4FE49187709070D40102C0AA0FBB1FBE
:101E40008A95E2F7EA2309F010E07111DA948D2DFA
:101E50000E94AA164420A1F1B3E0DB0EE3FCD39468
:101E6000E4FC05C0802F952D062D572C3C010894CD
:101E7000A11CB11CD501EC91EE2379F1E052FFE0F9
:101E8000EF9FA0011124F0E0E55CFE4FE491EE2EFF
:101E9000FF24C7018370907081309105D1F10297C2
:101EA000E1F1802F952D9C01E2FED1CE6E81CC20F8
:101EB00009F0D1CE10E08D2D0E94AA16442061F6C3
:101EC000CC2021F1112311F1E3E0DE0E0894A11CD6
:101ED000B11CD501EC91EE2389F626960FB6F89445
:101EE000DEBF0FBECDBFCF91DF911F910F91FF904D
:101EF000EF90DF90CF90BF90AF909F908F907F90AA
:101F00006F905F904F903F902F900895F4E0DF0E18
:101F1000AECF89819A819C01C7CF9301C5CFDC01E7
:101F2000ED91FC911197908114968C911497809566
:101F3000892380831296ED91FC91139790811596D9
:101F40008C9115978095892380838AE28EBD0DB48C
:101F500007FEFDCF1296ED91FC91139780811596A7
:101F60009C911597892B80831EBC0DB407FEFDCF75
:101F70001EBC0DB407FEFDCF1EBC0DB407FEFDCF89
:101F80008FE78EBD0DB407FEFDCF1296ED91FC914B
:101F90001397908115968C9115978095892380834E
:101FA0008BE28EBD0DB407FEFDCF1296ED91FC9134
:101FB0001397808115969C911597892B80831EBC61
:101FC0000DB407FEFDCF1EBC0DB407FEFDCF1EBC39
:101FD0000DB407FEFDCF8FE98EBD0DB407FEFDCF1A
:101FE0001296ED91FC911397908115968C9115970F
:101FF0008095892380838CE28EBD0DB407FEFDCFD2
:102000001296ED91FC911397808115969C911597EE
:10201000892B808380E090E07EBD0DB407FEFDCF6C
:102020006EBD0DB407FEFDCF019620E5803092070E
:1020300099F7ED91FC911197808114969C91892BD1
:1020400080830895EF92FF920F931F93DC01ED912F
:10205000FC911197908114968C9114978095892307
:1020600080831296ED91FC911397908115968C9137
:1020700015978095892380838AE28EBD0DB407FE73
:10208000FDCF1296ED91FC911397808115969C914E
:102090001597892B80831EBC0DB407FEFDCF6EBD46
:1020A0000DB407FEFDCF1EBC0DB407FEFDCF615081
:1020B000620F6EBD0DB407FEFDCF1296ED91FC913F
:1020C0001397908115968C9115978095892380831D
:1020D0008BE28EBD0DB407FEFDCF1296ED91FC9103
:1020E0001397808115969C911597892B80831EBC30
:1020F0000DB407FEFDCF4EBD0DB407FEFDCF1EBCD7
:102100000DB407FEFDCF4150400F4EBD0DB407FE8C
:10211000FDCF1296ED91FC911397908115968C91BD
:1021200015978095892380838CE28EBD0DB407FEC0
:10213000FDCF1296ED91FC911397808115969C919D
:102140001597892B8083029FC001039F900D129FDA
:10215000900D1124009751F0FEBC0DB407FEFDCF89
:10216000EEBC0DB407FEFDCF0197B1F7ED91FC91E8
:102170001197808114969C91892B80831F910F91D8
:10218000FF90EF900895AF92BF92CF92DF92EF92BF
:10219000FF920F931F93CF93DF935C01DC01ED91CE
:1021A000FC911197908114968C91149780958923B6
:1021B00080831296ED91FC911397908115968C91E6
:1021C0008095892380838AE28EBD0DB407FEFDCF02
:1021D000D5011296ED91FC911397808115969C91F3
:1021E000892B80831EBC0DB407FEFDCF6EBD0DB4E0
:1021F00007FEFDCF1EBC0DB407FEFDCF6150620F80
:102200006EBD0DB407FEFDCFD5011296ED91FC9188
:102210001397908115968C918095892380838BE20A
:102220008EBD0DB407FEFDCFD5011296ED91FC9148
:102230001397808115969C91892B80831EBC0DB4C9
:1022400007FEFDCF4EBD0DB407FEFDCF1EBC0DB485
:1022500007FEFDCF4150400F4EBD0DB407FEFDCF30
:10226000D5011296ED91FC911397908115968C9162
:102270008095892380838CE28EBD0DB407FEFDCF4F
:10228000D5011296ED91FC911397808115969C9142
:10229000892B8083029F002D1124002399F0E701F0
:1022A0002196C7010E94E80D882301F1DEBC0DB420
:1022B00007FEFDCFCEBC0DB407FEFDCF01507E0161
:1022C000002369F7D501ED91FC9111978081149657
:1022D0009C91892B8083DF91CF911F910F91FF906B
:1022E000EF90DF90CF90BF90AF9008951EBC0DB4DB
:1022F00007FEFDCF1EBC0DB407FEFDCF01507E01D1
:10230000DFCFDC01ED91FC911197908114968C91B7
:1023100014978095892380831296ED91FC911397F1
:10232000908115968C9115978095892380838AE2F8
:102330008EBD0DB407FEFDCF1296ED91FC91139763
:10234000808115969C911597892B80831EBC0DB4B6
:1023500007FEFDCF6EBD0DB407FEFDCF1EBC0DB454
:1023600007FEFDCF6EBD0DB407FEFDCF1296ED91B9
:10237000FC911397908115968C91159780958923E0
:1023800080838BE28EBD0DB407FEFDCF1296ED91DA
:10239000FC911397808115969C911597892B8083CA
:1023A0001EBC0DB407FEFDCF4EBD0DB407FEFDCF24
:1023B0001EBC0DB407FEFDCF4EBD0DB407FEFDCF14
:1023C0001296ED91FC911397908115968C9115972B
:1023D0008095892380838CE28EBD0DB407FEFDCFEE
:1023E0001296ED91FC911397808115969C9115970B
:1023F000892B80833EBD0DB407FEFDCF2EBD0DB4ED
:1024000007FEFDCFED91FC911197808114969C9170
:10241000892B808308950F931F93DC01ED91FC912C
:102420001197908114968C911497809589238083BD
:102430001296ED91FC911397908115968C911597BA
:102440008095892380838AE28EBD0DB407FEFDCF7F
:102450001296ED91FC911397808115969C9115979A
:10246000892B80831EBC0DB407FEFDCF6EBD0DB45D
:1024700007FEFDCF1EBC0DB407FEFDCF6EBD0DB433
:1024800007FEFDCF1296ED91FC9113979081159662
:102490008C9115978095892380838BE28EBD0DB436
:1024A00007FEFDCF1296ED91FC9113978081159652
:1024B0009C911597892B80831EBC0DB407FEFDCF20
:1024C0004EBD0DB407FEFDCF1EBC0DB407FEFDCF03
:1024D0004F5F4EBD0DB407FEFDCF1296ED91FC91FE
:1024E0001397908115968C911597809589238083F9
:1024F0008CE28EBD0DB407FEFDCF1296ED91FC91DE
:102500001397808115969C911597892B80833EBDEA
:102510000DB407FEFDCF2EBD0DB407FEFDCF1EBDD1
:102520000DB407FEFDCF0EBD0DB407FEFDCFED913E
:10253000FC911197808114969C91892B80831F9127
:102540000F910895DF92EF92FF920F931F93CF9315
:10255000DF93EC0189E061E00E943A1D8AE061E0CE
:102560000E943A1D48E955E1FA018491282F30E094
:10257000220F331F26583A4EF90185919491998381
:10258000888341505040FA018491E82FF0E0EE0F2B
:10259000FF1FE658FA4E859194919B838A83ECEA5B
:1025A000F5E184918C833197E491ED830E94D10D04
:1025B00080E00E94C00D81E00E94B10D80E00E9489
:1025C000BB0DE881F98190818C818095892380837E
:1025D000EBE9F1E0D4907F010894E11CF11CDD20CF
:1025E00009F468C0A7014F5F5F4FF7012491EA81AA
:1025F000FB8190818D81809589238083E881F98199
:1026000090818C818095892380832EBD0DB407FE37
:10261000FDCFE881F98180819C81892B80838A01AB
:102620000F5F1F4FFA015491852F8F7769F1815009
:102630009801682F70E06D5F7F4FD701A60FB71F1D
:1026400063507040F9012F5F3F4F4491EA81FB8155
:1026500080819D81892B8083E881F98190818C81A3
:102660008095892380834EBD0DB407FEFDCFE881A0
:10267000F98180819C81892B80832A173B0711F780
:102680006F5F7F4F060F171F780157FF10C0F801CB
:102690008491682F70E06F3F710509F425C180E0D7
:1026A00090E078010894E11CF11C0E94B71CDA94B8
:1026B00009F098CFE6EDF1E0D4907F010894E11C99
:1026C000F11CDD2009F468C0A7014F5F5F4FF701DF
:1026D0002491EA81FB8190818D818095892380837B
:1026E000E881F98190818C818095892380832EBD3A
:1026F0000DB407FEFDCFE881F98180819C81892B93
:1027000080838A010F5F1F4FFA015491852F8F77C5
:1027100069F181509801682F70E06D5F7F4FD7019C
:10272000A60FB71F63507040F9012F5F3F4F4491D0
:10273000EA81FB8180819D81892B8083E881F981F9
:1027400090818C818095892380834EBD0DB407FED6
:10275000FDCFE881F98180819C81892B80832A17B4
:102760003B0711F76F5F7F4F060F171F780157FF69
:1027700010C0F8018491682F70E06F3F710509F473
:10278000B8C080E090E078010894E11CF11C0E9440
:10279000B71CDA9409F098CFE3EEF1E0E490AF01D2
:1027A0004F5F5F4FEE2009F466C0BA016F5F7F4F45
:1027B000FA012491EA81FB8190818D8180958923A2
:1027C0008083E881F98190818C8180958923808341
:1027D0002EBD0DB407FEFDCFE881F98180819C817B
:1027E000892B80838B010F5F1F4FFB01F4908F2D8E
:1027F0008F7769F181509801682F70E06D5F7F4F8E
:10280000DA01A60FB71F63507040F9012F5F3F4FE9
:102810004491EA81FB8180819D81892B8083E881BD
:10282000F98190818C818095892380834EBD0DB480
:1028300007FEFDCFE881F98180819C81892B80830F
:102840002A173B0711F76F5F7F4F060F171FF7FE21
:102850000EC0F8018491682F70E06F3F710509F494
:102860004DC080E090E00F5F1F4F0E94B71CEA94BC
:10287000A80109F09ACFEA81FB8190818D81809532
:1028800089238083E881F98190818C8180958923D7
:10289000808386E38EBD0DB407FEFDCFE881F9810C
:1028A00080819C81892B8083EA81FB8180819D814D
:1028B000892B8083E881F98190818C81809589239F
:1028C000808380EC8EBD0DB407FEFDCFE881F981D9
:1028D00080819C81892B8083DF91CF911F910F9103
:1028E000FF90EF90DF90089564EF71E080E090E05A
:1028F000D8CE64EF71E080E090E045CF64EF71E006
:1029000080E090E0B0CF0F931F9306E411E0C80180
:102910000E94A212C80160E070E00E948F0F0E9426
:10292000C71682E061E00E943A1D83E061E00E94E8
:102930003A1D84E061E00E943A1D85E061E00E945A
:102940003A1D86E061E00E943A1D6EE875E1FB01E8
:102950008491E82FF0E0EE0FFF1F24E835E1E20F4D
:10296000F31F859194919093A9018093A801A2EA05
:10297000B5E1FD0184918093C4016F5F7F4FFB013E
:102980008491482F50E0440F551F420F531FFA0106
:10299000859194919093AB018093AA011196FD01CA
:1029A00084918093C5016F5F7F4FFB018491482F15
:1029B00050E0440F551F420F531FFA018591949127
:1029C0009093AD018093AC011196FD0184918093A9
:1029D000C6016F5F7F4FFB018491482F50E0440F89
:1029E000551F420F531FFA01859194919093AF01A7
:1029F0008093AE011196FD0184918093C7016F5FB2
:102A00007F4FFB018491482F50E0440F551F420F28
:102A1000531FFA01859194919093B1018093B00175
:102A20001196FD0184918093C8016F5F7F4FFB0178
:102A30008491482F50E0440F551F420F531FFA0155
:102A4000859194919093B3018093B2011196FD0109
:102A500084918093C9016F5F7F4FFB018491482F60
:102A600050E0440F551F420F531FFA018591949176
:102A70009093B5018093B4011196FD0184918093E8
:102A8000CA016F5F7F4FFB018491482F50E0440FD4
:102A9000551F420F531FFA01859194919093B701EE
:102AA0008093B6011196FD0184918093CB016F5FF5
:102AB0007F4FFB018491482F50E0440F551F420F78
:102AC000531FFA01859194919093B9018093B801B5
:102AD0001196FD0184918093CC016F5F7F4FFB01C4
:102AE0008491482F50E0440F551F420F531FFA01A5
:102AF000859194919093BB018093BA011196FD0149
:102B000084918093CD016F5F7F4FFB018491482FAB
:102B100050E0440F551F420F531FFA0185919491C5
:102B20009093BD018093BC011196FD018491809327
:102B3000CE016F5F7F4FFB018491482F50E0440F1F
:102B4000551F420F531FFA01859194919093BF0135
:102B50008093BE011196FD0184918093CF016F5F38
:102B60007F4FFB018491482F50E0440F551F420FC7
:102B7000531FFA01859194919093C1018093C001F4
:102B80001196FD0184918093D0016F5F7F4FFB010F
:102B90008491482F50E0440F551F420F531FFA01F4
:102BA000859194919093C3018093C2011196FD0188
:102BB00084918093D1011F910F91089582E10E9429
:102BC000181D909341018093400182E060E00E94D3
:102BD000A61D83E060E00E94A61D84E060E00E94E4
:102BE000A61D85E060E00E94A61D86E060E00E94D0
:102BF000A61D8EE00E94181D9093D3018093D201F0
:102C00000E94C7160895EF92FF920F931F93FC0145
:102C1000DB012483E582F682078310878C91808311
:102C200011968C911197818312968C918283809159
:102C30003F018383820F840F80933F0111861F9190
:102C40000F91FF90EF900895CF92DF92EF92FF9255
:102C50000F931F936EE4C62E61E0D62EC60160E08E
:102C600071E041E028E056E9E52E55EBF52E012D07
:102C7000112D0E940316C6010A9664E071E041E03E
:102C800020E13FEFE32E3FEFF32E012D112D0E94A7
:102C90000316C601449667E071E040E028E0BFEE0D
:102CA000EB2EBBE7FB2E012D112D0E940316C60152
:102CB0004E966AE071E04AE028E00E940316C601E1
:102CC00088966EE071E041E020E1A0EEEA2EA7E0F8
:102CD000FA2E012D112D0E940316C601C29662E143
:102CE00071E040E028E0FFE1EF2EF12C012D112DE5
:102CF0000E940316C601CC9665E171E040E028E031
:102D0000E4E2EE2EEDEDFE2E012D112D0E940316B4
:102D100084E991E068E171E040E028E05FE1E52EC0
:102D2000F12C012D112D0E9403168EE991E06BE12B
:102D300071E040E028E034E2E32E3DEDF32E012D7A
:102D4000112D0E9403161F910F91FF90EF90DF90BD
:102D5000CF900895CF92DF92EF92FF920F931F933F
:102D6000782FE62F7A01690186E491E0672F70E001
:102D70004E2F50E023E030E005E010E00E94C31049
:102D80001F910F91FF90EF90DF90CF9008954F9299
:102D90005F926F927F928F92AF92BF92CF92DF92AB
:102DA000EF92FF920F931F93DF93CF93CDB7DEB7D0
:102DB000A4970FB6F894DEBF0FBECDBF8091CB02B3
:102DC000882341F01092CB028091CA0291E08927BA
:102DD0008093CA0210924D0110924C018091C6025C
:102DE0009091C702A091C802B091C9020196A11D9D
:102DF000B11D8093C6029093C702A093C802B093FE
:102E0000C9020197A109B1092DB73EB7285030403A
:102E10000FB6F8943EBF0FBE2DBF4DB75EB74F5FE4
:102E20005F4F3E010894611C711CEDB7FEB77282C2
:102E300061822BE231E0FA0133832283848395831C
:102E4000A683B7830E94100B2DB73EB7285F3F4F74
:102E50000FB6F8943EBF0FBE2DBF83E06EE4A30112
:102E60002FEE3BE70FEE1BE7EFEEEE2EEBE7FE2E2D
:102E7000CC24AA2488240E94FE0D00D000D000D0CB
:102E8000EDB7FEB73196ADB7BEB712967C926E9293
:102E9000119782E391E09383828380914001909126
:102EA0004101958384830E94100BEDB7FEB73696DF
:102EB0000FB6F894FEBF0FBEEDBF89E665E5A3012E
:102EC00024E23DED0FEF1FEF76E5E72E7BEFF72EC7
:102ED0000E94FE0D80914201882309F437C01092B0
:102EE00042013EE0A32E32E0B32E80E090E0F501F7
:102EF000E590F4908E159F0500F58C01F801E45ED5
:102F0000FC4F4491C801835E9C4FFC01849190E08A
:102F1000880F991F825F9C4FFC012591349130935B
:102F20004D0120934C0186E491E06C2D0E948111AB
:102F30000E5F1F4F0E151F0508F3C39422E030E00B
:102F4000A20EB31EC70130E8C31689F66091400196
:102F50007091410180E090E00E946A1E2FE632E10C
:102F600043E85AE30E94F81E69A37AA38BA39CA3AB
:102F70006091D6027091D7028091D8029091D902C7
:102F80002FE832EC45EF5CE30E94DA1D6093D60235
:102F90007093D7028093D8029093D9024091D502C2
:102FA000E42FF0E0E35BFD4F2091D2013091D3019B
:102FB000C901880F991F820F931F9C01220F331F95
:102FC000220F331F220F331F820F931F880F991F69
:102FD000892F869580834F5F4093D502493710F043
:102FE0001092D502E4EDCE2EE1E0DE2E2AE132E0B1
:102FF000EE24FF247AE3672E44244A94542CF701EC
:10300000E35BFD4F8081862C881AD6014C91841693
:1030100009F41EC31E2D195FF9018591949152E0A8
:10302000A52EB12CA20EB31EF5012591349110925C
:103030004D0110924C018217930728F01AC0029696
:1030400082179307B0F4FC01E45EFC4FE4914E1745
:10305000B1F7835E9C4FFC018491E82FF0E0EE0F06
:10306000FF1FE25FFC4F8591949190934D018093F7
:103070004C01882D90E0841B9109019709F4EEC260
:1030800020914C0130914D0186E491E0612F0E9426
:10309000811150924D0140924C0186E491E0612FE4
:1030A000482D2FEF3FEF0E948111D6018C9208949A
:1030B000E11CF11C0894C11CD11C9501B9E7EB1669
:1030C000F10409F09CCF6091D6027091D7028091F3
:1030D000D8029091D90220E030E040E850E40E940C
:1030E000F81E7B018C0169A17AA18BA19CA120E033
:1030F00030E040E050E00E94F81E20E030E040E880
:1031000051E40E94F81E9B01AC01C801B7010E9466
:10311000DA1D0E945B1F20E030E048EC51E40E9481
:10312000F81E0E943E1E605E6093570169A17AA15D
:103130008BA19CA120E030E040E851E40E94F81E01
:103140009B01AC01C801B7010E94DA1D0E945B1F00
:1031500069A17AA18BA19CA19B01AC010E94DA1DFF
:1031600020E030E040E851E40E94F81E9B01AC01F1
:10317000C801B7010E94DA1D0E945B1F20E030E009
:1031800048EC51E40E94F81E0E943E1E605E60936F
:103190006B0169A17AA18BA19CA120E030E040E401
:1031A00050E40E94F81E20E030E040E851E40E9424
:1031B000F81E9B01AC01C801B7010E94DA1D0E94F4
:1031C0005B1F20E030E048EC51E40E94F81E0E94B2
:1031D0003E1E605E6093750169A17AA18BA19CA1DE
:1031E00020E030E040E850E40E94F81E20E030E0AB
:1031F00040E851E40E94F81E9B01AC01C801B701F0
:103200000E94DA1D0E945B1F20E030E048EC51E490
:103210000E94F81E0E943E1E605E60937F0169A1BD
:103220007AA18BA19CA120E030E040EA50E40E940A
:10323000F81E20E030E040E851E40E94F81E9B01B7
:10324000AC01C801B7010E94DA1D0E945B1F20E09B
:1032500030E048EC51E40E94F81E0E943E1E605E81
:103260006093890169A17AA18BA19CA120E030E043
:1032700040EC50E40E94F81E20E030E040E851E4C9
:103280000E94F81E9B01AC01C801B7010E94DA1D23
:103290000E945B1F20E030E048EC51E40E94F81EE1
:1032A0000E943E1E605E6093930169A17AA18BA18A
:1032B0009CA120E030E040EE50E40E94F81E20E0A7
:1032C00030E040E851E40E94F81E9B01AC01C801C7
:1032D000B7010E94DA1D0E945B1F20E030E048EC3D
:1032E00051E40E94F81E0E943E1E605E60939D01A4
:1032F00069A17AA18BA19CA120E030E040E051E4DB
:103300000E94F81E20E030E040E851E40E94F81EE0
:103310009B01AC01C801B7010E94DA1D0E945B1F2E
:1033200020E030E048EC51E40E94F81E0E943E1E6E
:10333000605E6093A7018091D2019091D301969530
:103340008795969587958F3308F08EE3809361017A
:1033500080914301882311F010924301D0905701CE
:103360000091CC02D01608F469C2E0905301F090AD
:103370005401F0924D01E0924C0149E9401BED2DC2
:10338000E01B0E2F10E0609151016F5F50E0401B79
:10339000510B2091520123500F5F1F4F86E491E0A3
:1033A00070E030E00E942210D092CC02D0906101F7
:1033B0000091CD02D01608F425C2E0905D01F09096
:1033C0005E01F0924D01E0924C0149E9401BFD2D58
:1033D000F01B0F2F10E060915B016F5F50E0401B0E
:1033E000510B20915C0123500F5F1F4F86E491E049
:1033F00070E030E00E942210D092CD02D0906B019C
:103400000091CE02D01608F4E1C1E0906701F0907F
:103410006801F0924D01E0924C0149E9401B2D2DCD
:10342000201B022F10E0609165016F5F50E0401B90
:10343000510B2091660123500F5F1F4F86E491E0EE
:1034400070E030E00E942210D092CE02D090750140
:103450000091CF02D01608F49DC1E0907101F09068
:103460007201F0924D01E0924C0149E9401B3D2D63
:10347000301B032F10E060916F016F5F50E0401B25
:10348000510B2091700123500F5F1F4F86E491E094
:1034900070E030E00E942210D092CF02D0907F01E5
:1034A0000091D002D01608F459C1E0907B01F09051
:1034B0007C01F0924D01E0924C0149E9401B8D2DB9
:1034C000801B082F10E0609179016F5F50E0401B76
:1034D000510B20917A0123500F5F1F4F86E491E03A
:1034E00070E030E00E942210D092D002D09089018A
:1034F0000091D102D01608F415C1E0908501F0903A
:103500008601F0924D01E0924C0149E9401B9D2D4E
:10351000901B092F10E0609183016F5F50E0401B0A
:10352000510B2091840123500F5F1F4F86E491E0DF
:1035300070E030E00E942210D092D102D09093012E
:103540000091D202D01608F4D1C0E0908F01F09023
:103550009001F0924D01E0924C0149E9401BAD2DE4
:10356000A01B0A2F10E060918D016F5F50E0401B9F
:10357000510B20918E0123500F5F1F4F86E491E085
:1035800070E030E00E942210D092D202D0909D01D3
:103590000091D302D01608F48DC0E0909901F0900C
:1035A0009A01F0924D01E0924C0149E9401BBD2D7A
:1035B000B01B0B2F10E0609197016F5F50E0401B34
:1035C000510B2091980123500F5F1F4F86E491E02B
:1035D00070E030E00E942210D092D302D090A70178
:1035E0000091D402D01608F045C010924D011092FF
:1035F0004C0149E94D190D1910E06091A1016F5F6F
:1036000050E0401B510B2091A20123500F5F1F4F30
:1036100086E491E070E030E0EE24FF240E94221066
:10362000D092D402A4960FB6F894DEBF0FBECDBFE1
:10363000CF91DF911F910F91FF90EF90DF90CF908E
:10364000BF90AF908F907F906F905F904F90089554
:1036500062E0A62EB12CA20EB31E29CD20914C0102
:1036600030914D0186E491E0612F0FEF1FEF0E9432
:103670000B121BCDE090A301F090A401F0924D013C
:10368000E0924C0149E9401BED2DE01B0E2F10E0AC
:103690006091A1016F5F50E0401B510B2091A2018E
:1036A00023500F5F1F4F86E491E070E030E00E94EE
:1036B0002210B6CF10924D0110924C0149E94D19DC
:1036C0000D1910E0609197016F5F50E0401B510BA6
:1036D0002091980123500F5F1F4F86E491E070E026
:1036E00030E0EE24FF240E94221076CF10924D018C
:1036F00010924C0149E94D190D1910E060918D01AE
:103700006F5F50E0401B510B20918E0123500F5FE3
:103710001F4F86E491E070E030E0EE24FF240E9429
:10372000221032CF10924D0110924C0149E94D19EF
:103730000D1910E0609183016F5F50E0401B510B49
:103740002091840123500F5F1F4F86E491E070E0C9
:1037500030E0EE24FF240E942210EECE10924D01A4
:1037600010924C0149E94D190D1910E06091790151
:103770006F5F50E0401B510B20917A0123500F5F87
:103780001F4F86E491E070E030E0EE24FF240E94B9
:103790002210AACE10924D0110924C0149E94D1908
:1037A0000D1910E060916F016F5F50E0401B510BED
:1037B0002091700123500F5F1F4F86E491E070E06D
:1037C00030E0EE24FF240E94221066CE10924D01BC
:1037D00010924C0149E94D190D1910E060916501F5
:1037E0006F5F50E0401B510B2091660123500F5F2B
:1037F0001F4F86E491E070E030E0EE24FF240E9449
:10380000221022CE10924D0110924C0149E94D191F
:103810000D1910E060915B016F5F50E0401B510B90
:1038200020915C0123500F5F1F4F86E491E070E010
:1038300030E0EE24FF240E942210DECD10924D01D4
:1038400010924C0149E94D190D1910E06091510198
:103850006F5F50E0401B510B2091520123500F5FCE
:103860001F4F86E491E070E030E0EE24FF240E94D8
:1038700022109ACDCF93DF930E94DD1C0E94831407
:10388000C0E0D0E00E94DE152097E1F30E94000026
:10389000F9CF1F920F920FB60F9211242F933F93DF
:1038A0008F939F93AF93BF938091DE029091DF023D
:1038B000A091E002B091E1023091E2020196A11DD7
:1038C000B11D232F2D5F2D3720F02D570196A11DFF
:1038D000B11D2093E2028093DE029093DF02A09359
:1038E000E002B093E1028091DA029091DB02A091B4
:1038F000DC02B091DD020196A11DB11D8093DA02B8
:103900009093DB02A093DC02B093DD02BF91AF91F4
:103910009F918F913F912F910F900FBE0F901F900D
:1039200018959FB7F8942091DA023091DB0240910C
:10393000DC025091DD0286B5A89B06C08F3F21F0C6
:103940002F5F3F4F4F4F5F4F9FBF542F432F322F5B
:103950002227280F311D411D511D82E0220F331FE8
:10396000441F551F8A95D1F7B901CA010895EF92F6
:10397000FF920F931F93CF93DF937B018C010E94E3
:10398000911CEB010EC00E94911C6C1B7D0B685EAC
:103990007340C8F30894E108F10801091109C851FE
:1039A000DC4FE114F1040105110569F7DF91CF91B6
:1039B0001F910F91FF90EF900895789484B58260E5
:1039C00084BD84B5816084BD85B5826085BD85B5C3
:1039D000816085BDEEE6F0E0808181608083E1E872
:1039E000F0E01082808182608083808181608083AA
:1039F000E0E8F0E0808181608083E1EBF0E08081AD
:103A000084608083E0EBF0E0808181608083EAE77E
:103A1000F0E0808184608083808182608083808107
:103A2000816080838081806880831092C1000895C6
:103A3000982F8E3008F09E509770809144018295A7
:103A4000880F880F807C892B80937C0080917A007E
:103A5000806480937A0080917A0086FDFCCF20916B
:103A6000780040917900942F80E030E0282B392BAA
:103A7000C9010895CF93DF93482F50E0CA018E55B6
:103A80009A4EFC01349142575A4EFA018491882390
:103A900069F190E0880F991FFC01E059FA4EA59159
:103AA000B491FC01E658FA4EC591D491662351F4C5
:103AB0002FB7F8948C91932F909589238C938881BC
:103AC00089230BC0623061F42FB7F8948C91932F47
:103AD000909589238C938881832B88832FBF06C080
:103AE0009FB7F8948C91832B8C939FBFDF91CF91DC
:103AF0000895833071F0843028F48130A1F0823051
:103B000021F514C08630B1F08730D1F08430E9F46B
:103B100004C0809180008F7703C0809180008F7DEA
:103B200080938000089584B58F7702C084B58F7D1F
:103B300084BD08958091B0008F778093B000089580
:103B40008091B0008F7D8093B0000895FF920F9315
:103B50001F93F62E482F50E0CA018A549A4EFC015A
:103B60002491CA018E559A4EFC01149142575A4E27
:103B7000FA0104910023C9F0222319F0822F0E9438
:103B8000791DE02FF0E0EE0FFF1FE658FA4EA591E9
:103B9000B4919FB7F894FF2021F48C911095812364
:103BA00002C08C91812B8C939FBF1F910F91FF902E
:103BB00008955058BB27AA270ED0E0C0D1D030F0CE
:103BC000D6D020F031F49F3F11F41EF4C6C00EF49D
:103BD000E095E7FBBCC0E92FE2D080F3BA1762079B
:103BE00073078407950718F071F49EF5FAC00EF478
:103BF000E0950B2EBA2FA02D0B01B90190010C01FD
:103C0000CA01A0011124FF27591B99F0593F50F414
:103C1000503E68F11A16F040A22F232F342F44276C
:103C2000585FF3CF469537952795A795F040539564
:103C3000C9F77EF41F16BA0B620B730B840BBAF034
:103C40009150A1F0FF0FBB1F661F771F881FC2F79F
:103C50000EC0BA0F621F731F841F48F487957795B3
:103C60006795B795F7959E3F08F0B3CF9395880F6A
:103C700008F09927EE0F97958795089598D088F0CA
:103C80009F5790F0B92F9927B751A0F0D1F0660F48
:103C9000771F881F991F1AF0BA95C9F712C0B13063
:103CA00081F09FD0B1E008959CC0672F782F8827BE
:103CB000B85F39F0B93FCCF3869577956795B395A2
:103CC000D9F73EF490958095709561957F4F8F4F11
:103CD0009F4F0895E89409C097FB3EF49095809516
:103CE000709561957F4F8F4F9F4F9923A9F0F92FC2
:103CF00096E9BB279395F695879577956795B79540
:103D0000F111F8CFFAF4BB0F11F460FF1BC06F5F25
:103D10007F4F8F4F9F4F16C0882311F096E911C037
:103D2000772321F09EE8872F762F05C0662371F058
:103D300096E8862F70E060E02AF09A95660F771F6C
:103D4000881FDAF7880F9695879597F9089597F960
:103D50009F6780E870E060E008959FEF80EC089531
:103D600000240A941616170618060906089500245A
:103D70000A9412161306140605060895092E0394D4
:103D8000000C11F4882352F0BB0F40F4BF2B11F448
:103D900060FF04C06F5F7F4F8F4F9F4F089557FDA7
:103DA0009058440F551F59F05F3F71F04795880FA9
:103DB00097FB991F61F09F3F79F087950895121640
:103DC00013061406551FF2CF4695F1DF08C01616EC
:103DD00017061806991FF1CF86957105610508949D
:103DE0000895E894BB2766277727CB0197F90895B4
:103DF0000BD0C4CFB5DF28F0BADF18F0952309F057
:103E0000A6CFABCF1124EECFCADFA0F3959FD1F39D
:103E1000950F50E0551F629FF001729FBB27F00D78
:103E2000B11D639FAA27F00DB11DAA1F649F6627CD
:103E3000B00DA11D661F829F2227B00DA11D621F1C
:103E4000739FB00DA11D621F839FA00D611D221FD6
:103E5000749F3327A00D611D231F849F600D211DBA
:103E6000822F762F6A2F11249F5750408AF0E1F05D
:103E700088234AF0EE0FFF1FBB1F661F771F881FA6
:103E800091505040A9F79E3F510570F060CFAACFE6
:103E90005F3FECF3983EDCF3869577956795B79591
:103EA000F795E7959F5FC1F7FE2B880F911D9695BB
:103EB000879597F908959F9305D00F9007FCEE5FC3
:103EC00031C04BCF74DFE8F3E894EFEFBB273FE05E
:103ED00048EC5FE76B3D73078407950708F1FF2700
:103EE0009F57B25A6A4D7F40894CF04032F4BE551C
:103EF0006542704F8643FF4F0894EE1F915030F09B
:103F0000BB0F661F771F881FFF1FEBCF9EE788231D
:103F100032F0BB0F661F771F881F9A95C1F79395E4
:103F2000E09511C0EF93E0FF06C0A2EA2AED3FE062
:103F300049EC5FEB50DE22DF0F90039401FC9058B8
:103F4000E8E6F0E010C09F3F49F0915028F48695D4
:103F500077956795B7959F5F80389F4F880F9695A7
:103F6000879597F908959F938F937F936F93FF930E
:103F7000EF939B01AC013CDFEF91FF9105D02F91B6
:103F80003F914F915F9134CFDF93CF931F930F9366
:103F9000FF92EF92DF927B018C01689405C0DA2ECC
:103FA000EF0132DFFE01E894A5912591359145910D
:103FB0005591AEF3EF010FDEFE019701A801DA94EF
:103FC00079F7DF90EF90FF900F911F91CF91DF91E4
:103FD0000895EE0FFF1F0590F491E02D09942F92A4
:103FE0003F924F925F926F927F928F929F92AF9289
:103FF000BF92CF92DF92EF92FF920F931F93CF93D6
:10400000DF93CDB7DEB7CA1BDB0B0FB6F894DEBF6C
:104010000FBECDBF09942A88398848885F846E8492
:104020007D848C849B84AA84B984C884DF80EE80DC
:10403000FD800C811B81AA81B981CE0FD11D0FB6E5
:10404000F894DEBF0FBECDBFED010895F894FFCF09
:10405000564F4C00565500424C00425220005355DA
:1040600042004C4C004C4800524C00524800252560
:1040700025646400252530256464006E3D256C644C
:104080002000256420002536642020006B20000AD3
:06409000320001010100F5
:00000001FF
