:100000000C94A00A0C94BD0A0C94BD0A0C94BD0A71
:100010000C94BD0A0C94BD0A0C94BD0A0C94BD0A44
:100020000C94BD0A0C94BD0A0C94BD0A0C94BD0A34
:100030000C94BD0A0C94BD0A0C94BD0A0C94BD0A24
:100040000C94AE130C94BD0A0C94BD0A0C94BD0A1A
:100050000C94BD0A0C94BD0A0C94BD0A0C94BD0A04
:100060000C94BD0A0C94BD0A00004910F0168804D7
:10007000B42A95A27D9EF3944491547515BA0080DC
:10008000020C008048256F7B4DD2F9FC3CDF9E7C42
:10009000CE3FEF4F92EFFBF73C0401044545C4719E
:1000A00044544641EF73F5EDBACE49BCB67B963F5A
:1000B0004B9CD6EDDB4B3AC9AA5D9B24EFDFF67F64
:1000C000D556EB12B5F3BAD61177496ADBB7ADDA7C
:1000D000BFADDA56D2A9DC929C883449AB0000E06F
:1000E0008001B875DE1E4FCEB7C7BB3B4FDE73C96C
:1000F0005B0892202DE92A4942DF626DF1F6EF9309
:10010000F7242C091F9F2746DBA3ADD0BEA8D4F649
:10011000344EDD9A2C499AAC0107AEEB000000107A
:1001200000080008000000000000000000020202B9
:1001300002020202020202000000000000000101AF
:10014000010101010101010101010101010101019F
:10015000010101010101010100000000010801018C
:100160000901010105010105010101010105050167
:10017000010101010101050100000000000F0180E3
:10018000961180FFB103012C2DB203012C2DB30673
:10019000012C2D012C2DB40107C003A20284C10142
:1001A000C5C2020A00C3028A2AC4028AEEC5010E31
:1001B00020003601C83A0105022A040000007F2B06
:1001C000040000009F04E010021C07123732292DA2
:1001D00029252B3900010310E110031D07062E2CE1
:1001E000292D2E2E373F0000021013800A29800A85
:1001F0006400C8002C01360140015E015E01CE01A1
:10020000E2010A020A0228023202500250026E0281
:1002100078029602FC022403380356035603740343
:100220007E039C039C03BA03C40334043E046604A7
:1002300070049804A204CA04D404F204F204100561
:100240008005A805B205D005E4050C06160634069F
:100250003E065C065C06CC06E00650075007C00769
:10026000D40744084408AA08B408D2083809600929
:10027000D009EE09540A7C0AEC0A0A0B660B840BBF
:100280008E0BFE0B080C300C3A0C620C6C0C940CB0
:100290009E0CBC0CBC0CDA0C4A0D720D7C0D9A0D38
:1002A000AE0DD60DE00DFE0D080E260E260E960E96
:1002B000AA0ED20ED20EFA0E0E0F360F360F540FB4
:1002C0005E0F7C0FE20F0A101E103C1046106E10DD
:1002D0008210A010A010BE10C810381142116A116F
:1002E00074119C11A611C411C411D811D811EA11AE
:1002F000D39C0000EF7B24DD694A863102000300B5
:100300000400050106000C000D000E000F00100097
:1003100016001701180119011A01200021002200FE
:10032000230024002A002B002C002D012E00340075
:1003300035003600370138013E003F0140004101E1
:100340004200480049014A004B004C005201530052
:100350005401550156015C005D005E005F006000C5
:10036000020003010400050106000C000D010E004F
:100370000F01100016001701180119011A012000C1
:1003800021012200230124002A002B012C002D0131
:100390002E00340135013600370138013E003F019F
:1003A000400041014200480049014A004B014C0015
:1003B000520053005400550056005C005D015E0180
:1003C0005F016000020003000400050006000C004D
:1003D0000D000E000F001000160017001800190085
:1003E0001A00200021012200230024002A002B01F2
:1003F0002C002D002E003400350036003700380068
:100400003E003F00400041004200480049004A00D1
:100410004B014C00520153015401550156015C003F
:100420005D005E005F0060006A026B026C026D029C
:100430006E026A026B016C026D016E0104030E0311
:10044000180322032C03360340034A0354035E03BC
:100450006A016B026C016D016E0104030602080261
:100460000A020C020E0310021202140216021803F2
:100470001A021C021E022002220324022602280263
:100480002A022C032E0230023202340236033802D2
:100490003A023C023E024003420244024602480243
:1004A0004A034C024E0250025202540356025802B2
:1004B0005A025C025E036100620063006400650032
:1004C0006A026B026C026D026E02610062016301DE
:1004D000640165006A016B016C016D016E02040329
:1004E0000E03180322032C03360340034A0354036C
:1004F0005E03610062006300640065006A026B02D3
:100500006C026D026E0204030E03180322032C0317
:10051000360340034A0354035E036A026B026C0213
:100520006D026E026A016B016C016D016E020403C3
:100530000E03180322032C03360340034A0354031B
:100540005E036A016B016C016D016E0204030E0310
:10055000180322032C03360340034A0354035E03AB
:100560006A016B026C016D016E026A026B016C0222
:100570006D016E0204030E03180322032C033603DD
:1005800040034A0354035E036A026B016C016D026F
:100590006E010404060408040A040C040E0410048A
:1005A00012041404160418041A041C041E04200463
:1005B00022042404260428042A042C042E043004D3
:1005C00032043404360438043A043C043E04400443
:1005D00042044404460448044A044C044E045004B3
:1005E00052045404560458045A045C045E04610026
:1005F000620063006401650004030E031803220314
:100600002C03360340034A0354035E036100620176
:100610006300640165006A026B026C026D026E0287
:10062000610062016300640065006A026B016C0294
:100630006D016E0204030E03180322032C0336031C
:1006400040034A0354035E036A026B016C016D01AF
:100650006E0204030E03180322032C033603400327
:100660004A0354035E036A016B016C016D016E0164
:100670006A016B016C016D016E0104030E03180326
:1006800022032C03360340034A0354035E036A012A
:100690006B016C016D016E0104030E03180322034C
:1006A0002C03360340034A0354035E036A026B01C2
:1006B0006C016D016E026A026B026C026D026E02C9
:1006C0000403060208020A020C020E0310021202C0
:1006D0001402160218031A021C021E022002220330
:1006E0002402260228022A022C032E0230023202A1
:1006F0003402360338023A023C023E024003420210
:100700004402460248024A034C024E025002520280
:100710005403560258025A025C025E0361016200F1
:100720006301640165016A026B016C016D016E0277
:100730006100620063006400650004030E03180397
:1007400022032C03360340034A0354035E03610172
:1007500062016301640165016A026B026C026D0251
:100760006E026A016B026C026D026E0104030E03DD
:10077000180322032C03360340034A0354035E0389
:10078000610062006300640065006A026B026C0233
:100790006D026E0261006201630164016500040381
:1007A0000E03180322032C03360340034A035403A9
:1007B0005E03610062006300640065006A026B0210
:1007C0006C026D026E026A026B016C016D016E02B9
:1007D00004030E03180322032C03360340034A03C9
:1007E00054035E036A016B026C026D026E01040326
:1007F0000E03180322032C03360340034A03540359
:100800005E036A026B026C026D026E02040406044F
:1008100008040A040C040E04100412041404160440
:1008200018041A041C041E042004220424042604B0
:1008300028042A042C042E04300432043404360420
:1008400038043A043C043E04400442044404460490
:1008500048044A044C044E04500452045404560400
:1008600058045A045C045E0461016200630164017F
:1008700065016A016B016C016D016E0204030E03D8
:10088000180322032C03360340034A0354035E0378
:10089000610062006300640065006A026B026C0222
:1008A0006D026E026101620163016401650104036E
:1008B0000E03180322032C03360340034A03540398
:1008C0005E036A016B026C026D026E0161006200E0
:1008D0006300640165006A026B016C016D016E02C8
:1008E00004030E03180322032C03360340034A03B8
:1008F00054035E03610062016300640165006A02E3
:100900006B016C016D016E026100620163006400A5
:10091000650004030E03180322032C03360340036F
:100920004A0354035E036A026B016C016D016E01A0
:100930006A026B026C026D026E0204030E0318035E
:1009400022032C03360340034A0354035E036A0266
:100950006B016C016D016E010403060208020A02BC
:100960000C020E03100212021402160218031A02DD
:100970001C021E02200222032402260228022A024E
:100980002C032E02300232023402360338023A02BD
:100990003C023E02400342024402460248024A032D
:1009A0004C024E02500252025403560258025A029E
:1009B0005C025E03610062016300640065006A021C
:1009C0006B016C016D016E026100620163006401E4
:1009D00065006A026B026C026D026E02040306057A
:1009E00008050A050C050E03100512051405160569
:1009F00018031A051C051E052005220324052605DB
:100A000028052A052C032E0530053205340536034A
:100A100038053A053C053E054003420544054605B8
:100A200048054A034C054E0550055205540356052A
:100A300058055A055C055E036100620063006401AD
:100A400065006A026B016C016D016E02040306050C
:100A500008050A050C050E031005120514051605F8
:100A600018031A051C051E0520052203240526056A
:100A700028052A052C032E053005320534053603DA
:100A800038053A053C053E05400342054405460548
:100A900048054A034C054E055005520554035605BA
:100AA00058055A055C055E0361006200630064003E
:100AB00065006A016B026C026D026E0161006201E9
:100AC0006301640165006A026B016C016D016E02D5
:100AD0000403060508050A050C050E03100512059A
:100AE0001405160518031A051C051E05200522030A
:100AF0002405260528052A052C032E053005320578
:100B00003405360338053A053C053E0540034205E9
:100B10004405460548054A034C054E055005520557
:100B20005403560558055A055C055E0361006200D2
:100B30006300640065006A016B026C026D026E0165
:100B40000403060508050A050C050E031005120529
:100B50001405160518031A051C051E052005220399
:100B60002405260528052A052C032E053005320507
:100B70003405360338053A053C053E054003420579
:100B80004405460548054A034C054E0550055205E7
:100B90005403560558055A055C055E036A026B024C
:100BA0006C026D026E026A016B026C026D026E01D4
:100BB00004030E03180322032C03360340034A03E5
:100BC00054035E036A026B026C026D026E0204043F
:100BD000060408040A040C040E041004120414048D
:100BE000160418041A041C041E04200422042404FD
:100BF000260428042A042C042E043004320434046D
:100C0000360438043A043C043E04400442044404DC
:100C1000460448044A044C044E045004520454044C
:100C2000560458045A045C045E04610062016300C7
:100C30006400650004030E03180322032C0336032B
:100C400040034A0354035E036100620163006401D0
:100C500065006A016B016C016D016E0104050605FA
:100C600008050A050C050E051005120514051605E4
:100C700018051A051C051E05200522052405260554
:100C800028052A052C052E053005320534053605C4
:100C900038053A053C053E05400542054405460534
:100CA00048054A054C054E055005520554055605A4
:100CB00058055A055C055E05610062006300640129
:100CC00065006A016B016C016D016E0104030E0386
:100CD000180322032C03360340034A0354035E0324
:100CE0006A016B016C016D016E01040506050805C2
:100CF0000A050C050E051005120514051605180544
:100D00001A051C051E0520052205240526052805B3
:100D10002A052C052E053005320534053605380523
:100D20003A053C053E054005420544054605480593
:100D30004A054C054E055005520554055605580503
:100D40005A055C055E056100620063006401650090
:100D500004030E03180322032C03360340034A0343
:100D600054035E03610062016300640165006A026E
:100D70006B026C026D026E020405060508050A0589
:100D80000C050E05100512051405160518051A05A3
:100D90001C051E05200522052405260528052A0513
:100DA0002C052E05300532053405360538053A0583
:100DB0003C053E05400542054405460548054A05F3
:100DC0004C054E05500552055405560558055A0563
:100DD0005C055E05610062016300640065006A01F4
:100DE0006B026C026D016E0104030E0318032203F3
:100DF0002C03360340034A0354035E036A026B026A
:100E00006C026D026E020405060508050A050C0554
:100E10000E05100512051405160518051A051C0502
:100E20001E05200522052405260528052A052C0572
:100E30002E05300532053405360538053A053C05E2
:100E40003E05400542054405460548054A054C0552
:100E50004E05500552055405560558055A055C05C2
:100E60005E0504030E03180322032C03360340031C
:100E70004A0354035E036A026B026C026D026E0247
:100E80006A026B016C026D016E0204030602080225
:100E90000A020C020E0310021202140216021803B8
:100EA0001A021C021E022002220324022602280229
:100EB0002A022C032E023002320234023603380298
:100EC0003A023C023E024003420244024602480209
:100ED0004A034C024E025002520254035602580278
:100EE0005A025C025E0361006201630064016500F6
:100EF0006A026B016C016D016E02610062016300A8
:100F00006401650004030E03180322032C03360357
:100F100040034A0354035E036100620063006400FF
:100F200065006A026B016C016D016E016A026B0261
:100F30006C026D026E0204030E03180322032C03DD
:100F4000360340034A0354035E03610062006300FA
:100F5000640065006A026B016C016D016E01610045
:100F6000620163016401650004030E031803220398
:100F70002C03360340034A0354035E0361006200FE
:100F80006300640065006A016B026C026D026E0210
:100F90006A026B016C026D016E0104030E031803FB
:100FA00022032C03360340034A0354035E036A0101
:100FB0006B026C026D026E0204030E03180322031F
:100FC0002C03360340034A0354035E036A026B0298
:100FD0006C026D026E020404060408040A040C0488
:100FE0000E04100412041404160418041A041C0439
:100FF0001E04200422042404260428042A042C04A9
:101000002E04300432043404360438043A043C0418
:101010003E04400442044404460448044A044C0488
:101020004E04500452045404560458045A045C04F8
:101030005E04610062016300640165006A016B0186
:101040006C016D016E0204030E03180322032C03CE
:10105000360340034A0354035E03610062016300E8
:10106000640165006A016B016C016D016E02610033
:10107000620063006400650004030E03180322038A
:101080002C03360340034A0354035E036A016B01D9
:101090006C016D016E016100620063006401650016
:1010A0006A016B016C016D016E0104030E031803EC
:1010B00022032C03360340034A0354035E036100FA
:1010C00062016300640165006A016B016C016D01DE
:1010D0006E016100620163006400650004030E0399
:1010E000180322032C03360340034A0354035E0310
:1010F0006A026B026C026D026E026A026B016C0185
:101100006D016E0204030E03180322032C03360341
:1011100040034A0354035E036A016B026C026D02D2
:101120006E010403060208020A020C020E031002FA
:1011300012021402160218031A021C021E022002D6
:1011400022032402260228022A022C032E02300245
:1011500032023402360338023A023C023E024003B5
:1011600042024402460248024A034C024E02500226
:1011700052025403560258025A025C025E03610096
:1011800062006300640165016A026B026C026D0219
:101190006E02610162016300640165016A026B0114
:1011A0006C026D016E0204030E03180322032C036C
:1011B000360340034A0354035E0361006200630088
:1011C000640065006A026B016C016D016E0204032C
:1011D0000E03180322032C03360340034A0354036F
:1011E0005E03610062006300640065006A026B01D7
:1011F0006C016D016E0161006201630164016500B3
:101200006A026B026C026D026E0204030E03180385
:1012100022032C03360340034A0354035E03610098
:1012200062006300640065006A026B016C016D017D
:101230006E0104030E03180322032C03360340033C
:101240004A0354035E036A026B026C026D026E0273
:101250006A026B016C026D016E0204030E03180337
:1012600022032C03360340034A0354035E036A023D
:101270006B016C016D016E020404060408040A048B
:101280000C040E04100412041404160418041A04A6
:101290001C041E04200422042404260428042A0416
:1012A0002C042E04300432043404360438043A0486
:1012B0003C043E04400442044404460448044A04F6
:1012C0004C044E04500452045404560458045A0466
:1012D0005C045E0461006200630064016501040354
:1012E0000E03180322032C03360340034A0354035E
:1012F0005E03610162016300640165016A016B02C2
:101300006C026D026E0161006200630064006500A2
:101310006A026B016C016D016E0204030E03180377
:1013200022032C03360340034A0354035E036A027C
:101330006B016C016D016E0261006200630064016B
:10134000650004030E03180322032C033603400335
:101350004A0354035E036100620163006401650097
:101360006A026B016C016D016E0161006201630034
:10137000640065006A026B026C026D026E02040377
:101380000E03180322032C03360340034A035403BD
:101390005E036A026B016C016D016E0104030E03B2
:1013A000180322032C03360340034A0354035E034D
:1013B0006A016B026C026D026E016A026B016C01C4
:1013C0006D016E020403060208020A020C020E03FB
:1013D000100212021402160218031A021C021E0244
:1013E000200222032402260228022A022C032E02B3
:1013F000300232023402360338023A023C023E0224
:10140000400342024402460248024A034C024E0292
:10141000500252025403560258025A025C025E0302
:10142000610062006300640165006A016B026C0286
:101430006D026E01610062016300640165000403D6
:101440000E03180322032C03360340034A035403FC
:101450005E03610062016300640065006A026B0262
:101460006C026D026E026A026B016C026D016E010C
:1014700004030E03180322032C03360340034A031C
:1014800054035E03610062006300640065006A014A
:101490006B026C016D026E02610062016301640106
:1014A000650004030E03180322032C0336034003D4
:1014B0004A0354035E036100620063006400650038
:1014C00004030E03180322032C03360340034A03CC
:1014D00054035E030E03180322032C033603400358
:1014E0004A0354035E0300000000240027002A0082
:1014F00000000000250028002B0000000000230051
:101500002600290004040404040404040202020264
:1015100002020303030303030102040810204080B6
:101520000102040810200102040810200000000736
:10153000000201000003040600000000000000009B
:1015400011241FBECFEFD8E0DEBFCDBF11E0A0E079
:10155000B1E0EEEEFAE202C005900D92A234B107BE
:10156000D9F712E0A2E4B1E001C01D92AC37B10797
:10157000E1F70E949F130C9475150C940000AEE0E7
:10158000B0E0E5ECFAE00C944C150D891E8986E07C
:101590008C831A8309838FEF9FE79E838D839E013F
:1015A000275E3F4FCE0101966F89788DA9010E9479
:1015B000E30A2F813885020F131FF80110822E963F
:1015C000E4E00C946815ABE0B0E0E9EEFAE00C94CE
:1015D0003E153C012B015A01FC01178216828381C2
:1015E00081FD03C06FEF7FEFC6C19AE0892E1E0117
:1015F0000894211C311CF3012381F20123FD859104
:1016000023FF81912F01882309F4B2C1853239F477
:1016100023FD859123FF81912F01853229F490E0EC
:10162000B3010E94D60CE7CF982FFF24EE24992413
:10163000FFE1FF15D0F09B3269F09C3228F4903224
:1016400059F0933291F40EC09D3249F0903369F411
:1016500041E024C052E0F52A84E0F82A28C098E04E
:10166000F92A25C0E0E1FE2A22C0F7FC29C0892F13
:1016700080538A3070F4F6FE05C0989C902C11249B
:10168000980E15C0E89CE02C1124E80EF0E2FF2A29
:101690000EC09E3229F4F6FC6BC140E4F42A07C068
:1016A0009C3619F450E8F52A02C0983649F4F20144
:1016B00023FD959123FF91912F01992309F0B8CF34
:1016C000892F8554833018F08052833038F444E0F9
:1016D00050E0A40EB51E5FE359830FC0933631F07E
:1016E000933779F0933509F056C020C0F501808119
:1016F000898342E050E0A40EB51E610101E010E0D4
:1017000012C0F501C080D180F6FC03C06FEF7FEFFF
:1017100002C0692D70E042E050E0A40EB51EC60183
:101720000E94CB0C8C015FE7F52214C0F501C0804C
:10173000D180F6FC03C06FEF7FEF02C0692D70E02F
:1017400042E050E0A40EB51EC6010E94C00C8C0100
:1017500050E8F52AF3FE07C01AC080E290E0B3011A
:101760000E94D60CEA948E2D90E008171907A8F372
:101770000EC0F601F7FC8591F7FE81916F0190E0B4
:10178000B3010E94D60CE110EA94015010400115FB
:10179000110579F7EAC0943611F0993669F5F7FE2C
:1017A00008C0F501208131814281538184E090E0BD
:1017B0000AC0F501808191819C01442737FD409545
:1017C000542F82E090E0A80EB91E9FE6F92257FF41
:1017D00009C050954095309521953F4F4F4F5F4F31
:1017E000E0E8FE2ACA01B901A1012AE030E00E9426
:1017F000020DD82ED21840C0953729F41F2D1F7E18
:101800002AE030E01DC01F2D197F9F3661F0903710
:1018100020F4983509F0ACC00FC0903739F09837F4
:1018200009F0A6C004C028E030E00AC0106114FD31
:10183000146020E130E004C014FD166020E132E0C5
:1018400017FF08C0F501608171818281938144E0B6
:1018500050E008C0F50180819181BC0180E090E0FA
:1018600042E050E0A40EB51EA1010E94020DD82E48
:10187000D2188FE7F82EF122F6FE0BC05EEFF522AC
:10188000D91438F4F4FE07C0F2FC05C08FEEF8223C
:1018900002C01D2D01C0192DF4FE0DC0FE01ED0D7D
:1018A000F11D8081803319F499EEF92208C01F5F81
:1018B000F2FE05C003C08F2D867809F01F5F0F2D43
:1018C000F3FC14C0F0FE0FC01E1510F09D2C0BC0D1
:1018D0009D2C9E0C911A1E2D06C080E290E0B30153
:1018E0000E94D60C1F5F1E15C0F304C01E1510F415
:1018F000E11A01C0EE2404FF0FC080E390E0B301C1
:101900000E94D60C02FF1DC001FD03C088E790E0D5
:101910000EC088E590E00BC0802F867891F001FF23
:1019200002C08BE201C080E2F7FC8DE290E0B301DF
:101930000E94D60C06C080E390E0B3010E94D60C52
:101940009A94D914C0F3DA94F101ED0DF11D808160
:1019500090E0B3010E94D60CDD20A9F706C080E21A
:1019600090E0B3010E94D60CEA94EE20C1F743CE7A
:10197000F30166817781CB012B96E2E10C945A1535
:10198000FC010590615070400110D8F7809590954A
:101990008E0F9F1F0895FC0161507040019001104F
:1019A000D8F7809590958E0F9F1F08950F931F93E2
:1019B000CF93DF938C01EB018B8181FF1BC082FFF2
:1019C0000DC02E813F818C819D812817390764F4D9
:1019D000E881F9810193F983E88306C0E885F985F8
:1019E000802F0995892B31F48E819F8101969F83E9
:1019F0008E8302C00FEF1FEFC801DF91CF911F91BF
:101A00000F910895FA01AA27283051F1203181F170
:101A1000E8946F936E7F6E5F7F4F8F4F9F4FAF4FF6
:101A2000B1E03ED0B4E03CD0670F781F891F9A1F09
:101A3000A11D680F791F8A1F911DA11D6A0F711DBD
:101A4000811D911DA11D20D009F468943F912AE0C9
:101A5000269F11243019305D3193DEF6CF010895B1
:101A6000462F4770405D4193B3E00FD0C9F7F6CFE2
:101A7000462F4F70405D4A3318F0495D31FD4052AA
:101A8000419302D0A9F7EACFB4E0A6959795879540
:101A900077956795BA95C9F700976105710508951F
:101AA0009B01AC010A2E06945795479537952795CB
:101AB000BA95C9F7620F731F841F951FA01D089563
:101AC000882319F48CB5806202C08CB58F7D8CBDE3
:101AD00008959CB5937F982B9CBD08952CB5382F05
:101AE00033702C7F322B3CBD2DB590E095958795BA
:101AF0009595879581702E7F822B8DBD08958AE004
:101B000061E00E940B158AE061E00E949F148CB591
:101B100080618CBD8CB580648CBD8DE061E00E94DD
:101B20009F148BE061E00E949F140895FC0123E064
:101B3000F695E7952A95E1F7E859FF4FE49187700C
:101B4000907021E030E002C0220F331F8A95E2F747
:101B50008E2F822308952F923F924F925F926F9221
:101B60007F928F929F92AF92BF92CF92DF92EF922D
:101B7000FF920F931F93DF93CF93CDB7DEB72897D4
:101B80000FB6F894DEBF0FBECDBFD82E69833A01E1
:101B90002C833D8358012701CA828B826F5F6E833D
:101BA000E1E02E2E312CD301EC91E052BFE0EB9F0F
:101BB000A0011124F0E0E35EFE4FE491EE2EFF243D
:101BC000C701837090708130910519F48C819D81DB
:101BD00003C0029719F0C2018C0101C08501E2FC2B
:101BE00002C0898001C08E80EA81EE2309F448C0DA
:101BF0000A151B0509F444C09A012E5F3F4FDA0114
:101C0000CC24C39499249394BA01645F7F4F78875E
:101C10006F83FD0173E0F695E7957A95E1F7E85952
:101C2000FF4FE491CD0187709070B10102C0660F43
:101C3000771F8A95E2F7E62309F09924F90163E01A
:101C4000F695E7956A95E1F7E859FF4FE491C901E8
:101C500087709070B10102C0660F771F8A95E2F716
:101C6000E62309F0CC242D5F3F4F8F819885A8177C
:101C7000B90711F01396CDCF992019F0DA9401C06D
:101C8000CC248D2D682D98010E943A129B819923B6
:101C900051F0A3E0DA0EE3FCD394E4FC0EC0C201E1
:101CA00025015C010AC0BA81BB2329F0CC2019F0C0
:101CB000E3E0DE0E02C0F4E0DF0E0894611C711C4C
:101CC000D3018C91882309F06ECF28960FB6F89433
:101CD000DEBF0FBECDBFCF91DF911F910F91FF905F
:101CE000EF90DF90CF90BF90AF909F908F907F90BC
:101CF0006F905F904F903F902F900895DC01129667
:101D0000ED91FC911397808115969C911597892BE5
:101D10008083ED91FC911197908114968C9114978A
:101D20008095892380836EBD0DB407FEFDCFED91B4
:101D3000FC911197808114969C91892B8083089542
:101D40000F93DC011296ED91FC91139790811596FB
:101D50008C9115978095892380838AE28EBD0DB47E
:101D600007FEFDCF1296ED91FC9113978081159699
:101D70009C911597892B80831EBC0DB407FEFDCF67
:101D80006EBD0DB407FEFDCF1EBC0DB407FEFDCF2A
:101D90002EBD0DB407FEFDCF1296ED91FC91139769
:101DA000908115968C9115978095892380838BE27D
:101DB0008EBD0DB407FEFDCF1296ED91FC911397E9
:101DC000808115969C911597892B80831EBC0DB43C
:101DD00007FEFDCF4EBD0DB407FEFDCF1EBC0DB4FA
:101DE00007FEFDCF0EBD0DB407FEFDCF1296ED919F
:101DF000FC911397908115968C918095892380830F
:101E00008CE28EBD0DB407FEFDCF0F910895FF92B9
:101E10000F931F93CF93DF93EC01562F042FF22ED5
:101E2000132FE881F98190818C81809589238083AB
:101E3000CE01252F0E94A00EEA81FB8180819D8129
:101E4000892B80831EBD0DB407FEFDCFFEBC0DB4F3
:101E500007FEFDCFE881F98180819C81892B8083F9
:101E6000DF91CF911F910F91FF900895DF92EF9234
:101E7000FF920F931F93CF93DF93EC01762F542F94
:101E80007901D02EE881F98190818C818095892318
:101E90008083CE01272F5F5F052F0E94A00EEA816D
:101EA000FB8180819D81892B8083FEBC0DB407FE60
:101EB000FDCFEEBC0DB407FEFDCF1EBD0DB407FE79
:101EC000FDCFDEBC0DB407FEFDCFE881F981808136
:101ED0009C81892B8083DF91CF911F910F91FF907F
:101EE000EF90DF900895AF92BF92CF92DF92EF9282
:101EF000FF920F931F93CF93DF93EC015901680179
:101F0000E881F98190818C81809589238083262FB7
:101F100021502A0D042F01500C0DCE010E94A00E5D
:101F2000EA81FB8180819D81892B8083CA9CC001CD
:101F3000CB9C900DDA9C900D112409C0FEBC0DB411
:101F400007FEFDCFEEBC0DB407FEFDCF0197009755
:101F5000A9F7E881F98180819C81892B8083DF91B9
:101F6000CF911F910F91FF90EF90DF90CF90BF9096
:101F7000AF900895EF92FF920F931F937B0160E063
:101F800070E040E050E020E830E000EA10E00E941D
:101F9000730F1F910F91FF90EF900895AF92BF9232
:101FA000CF92DF92EF92FF920F931F93CF93DF9325
:101FB000EC01A22EB02EE881F98190818C81809570
:101FC00089238083262F21502A0D042F01500B0DC9
:101FD000CE010E94A00EEA81FB8180819D81892B28
:101FE0008083BA9CB02C11241BC087010F5F1F4F48
:101FF000C7010E94960D882349F0DEBC0DB407FE90
:10200000FDCFCEBC0DB407FEFDCF08C01EBC0DB485
:1020100007FEFDCF1EBC0DB407FEFDCFBA947801BC
:10202000BB2019F7E881F98180819C81892B80830D
:10203000DF91CF911F910F91FF90EF90DF90CF90A4
:10204000BF90AF900895AF92BF92CF92DF92EF9280
:10205000FF920F931F93CF93DF938C01FB01EB0152
:102060002196A49051C0AE014F5F5F4FFE012491B5
:10207000D8011296ED91FC911397908115968C9151
:102080001597809589238083ED91FC91119790811C
:1020900014968C918095892380832EBD0DB407FE04
:1020A000FDCFD801ED91FC911197808114969C9100
:1020B000892B80836A010894C11CD11CFA01B49059
:1020C0004FE7E42EEB20E601FE2C08C0FE0121962E
:1020D000E491C8016E2F0E947E0EFA94FF20B1F7A2
:1020E000E601CE0DD11DB7FE0EC0FE018491682F12
:1020F00070E06F3F710511F464EF71E0219680E0AC
:1021000090E00E941C14AA94AA2009F0ACCFDF91A1
:10211000CF911F910F91FF90EF90DF90CF90BF90E4
:10212000AF9008950F931F93CF93DF93EC018B0132
:1021300089E061E00E949F148AE061E00E949F14A0
:102140004EE055E1FA018491282F30E0220F331F31
:1021500020513B4EF9018591949199838883415098
:102160005040FA018491E82FF0E0EE0FFF1FE0519C
:10217000FB4E859194919B838A83E2E2F5E1849101
:102180008C833197E491ED830E947F0D80E00E9463
:102190006E0D81E00E94600D80E00E94690DE88173
:1021A000F98190818C8180958923808301151105A7
:1021B00021F0CE01B8010E942310DF91CF911F9131
:1021C0000F910895CF93DF93EC016DE771E00E94CA
:1021D0009210CE0168EB71E00E942310CE0165ECF5
:1021E00071E00E942310EA81FB8190818D818095AE
:1021F00089238083E881F98190818C81809589236E
:10220000808386E38EBD0DB407FEFDCFE881F981A2
:1022100080819C81892B8083CE0160EC0E947E0EA0
:10222000DF91CF91089582E10E947D14909378010F
:10223000809377010E94B51208951F93CF93DF9387
:1022400082E491E00E94E21082E491E060E070E0BC
:102250000E94BA0F0E94B51210E0812F62E00E9426
:102260009F141F5F1830C9F788E061E00E949F1437
:102270008EE061E00E949F148FE061E00E949F1455
:1022800080E161E00E949F1481E161E00E949F145F
:102290008EE061E00E940B1580E160E00E940B156A
:1022A00081E160E00E940B15CAE4D1E020E030E05B
:1022B000F901EC5FFA4EE491F0E0EE0FFF1FE650FB
:1022C000FB4E8591949189939993F901E85EFA4EBA
:1022D000E491D901AA59BE4FEC932F5F3F4F2E30A6
:1022E000310531F781E080937401DF91CF911F9127
:1022F00008956F927F928F92AF92CF92EF92FF925A
:102300000F931F93DF93CF93CDB7DEB7A0970FB690
:10231000F894DEBF0FBECDBF109249011092480164
:1023200082E491E06091760140E020E030E00E949C
:10233000070F80917601882319F0815080937601F0
:1023400080913F01815080933F0118162CF010922C
:102350003F0181E080936F0280916B0290916C024B
:10236000A0916D02B0916E020196A11DB11D8093E6
:102370006B0290936C02A0936D02B0936E02019772
:10238000A109B1092DB73EB7285030400FB6F894D7
:102390003EBF0FBE2DBF4DB75EB74F5F5F4F3E01D3
:1023A0000894611C711CEDB7FEB7728261822AE14C
:1023B00031E0FA013383228384839583A683B78334
:1023C0000E94BF0A2DB73EB7285F3F4F0FB6F89463
:1023D0003EBF0FBE2DBF83E066E7A3012FEE3BE7B4
:1023E0000FEE1BE7FFEEEF2EFBE7FF2ECC24AA2417
:1023F00088240E94AB0D00D000D000D0EDB7FEB70E
:102400003196ADB7BEB712967C926E92119780E26C
:1024100091E09383828380917701909178019583F5
:1024200084830E94BF0AEDB7FEB736960FB6F894C4
:10243000FEBF0FBEEDBF83E06DE7A30124E23DEDDB
:102440000FEF1FEFE6E5EE2EEBEFFE2E0E94AB0D39
:10245000A0960FB6F894DEBF0FBECDBFCF91DF912F
:102460001F910F91FF90EF90CF90AF908F907F9042
:102470006F900895CF92DF92EF92FF920F931F9388
:10248000782FE62F7A01690182E491E0672F70E0EE
:102490004E2F50E023E030E005E010E00E94CE0F28
:1024A0001F910F91FF90EF90DF90CF900895EF92E2
:1024B000FF920F931F93382FA42F022F10E0E62FC7
:1024C000F0E0E01BF10B0F5F1F4FE0904801F09030
:1024D000490182E491E0632F70E0AF012A2F30E0E0
:1024E0000E94730F1F910F91FF90EF9008958091BC
:1024F00075018F5F80937501833010F01092750124
:10250000109249011092480180E060EA40E82FE211
:102510000E945712809175018823A1F480E090E019
:1025200041E050E09A01082E02C0220F331F0A94A6
:10253000E2F7019685309105A9F787E080933E0187
:1025400020933D0108950F931F93782FE62F8A0162
:10255000209148013091490182E491E0672F4E2F8C
:102560000E94360F1F910F9108959F92AF92BF92D4
:10257000CF92DF92EF92FF920F931F93CF93DF934F
:1025800080917102882321F00E94771210927102CB
:1025900080917202882341F0109272028091700241
:1025A00091E08927809370020E9479118091400107
:1025B000882371F449E7E42E41E0F42E0CEF11E09A
:1025C000C0E0D0E03EE5932EAA24AA94BA2C46C0DF
:1025D0001092400180E090E010E0E12FF0E0EE0F7B
:1025E000FF1FE051FE4FE590F490EC011BC0FE018F
:1025F000E450FD4F4491CE0183509D4FFC018491E6
:1026000090E0880F991F80519D4FFC0125913491D6
:10261000309349012093480182E491E0612F0E94A8
:10262000070F2296CE15DF0510F31F5FC701103884
:10263000A1F680E090E041E050E09A01082E02C04F
:10264000220F331F0A94E2F7019685309105A9F70E
:1026500087E080933E0120933D01ACCFFE01EE5018
:10266000FE4F8081C92CC81AF7014081C41609F4B5
:1026700050C0B7E0DB2EDC0EC801F8016591749103
:102680000296FC0125913491109249011092480163
:10269000CB0118C0FC01E450FD4FE491E41789F42C
:1026A00083509D4FFC018491E82FF0E0EE0FFF1F57
:1026B000E051FD4F85919491909349018093480199
:1026C00004C002968217930728F38C2D90E0841B98
:1026D0009109019739F48D2D642F4FEF5FEF0E9420
:1026E000A31215C0209148013091490182E491E084
:1026F0006D2D0E94070FB0924901A092480182E41B
:1027000091E06D2D4C2D2FEF3FEF0E94070FF70149
:10271000C08221960894E11CF11C0E5F1F4FC9373F
:10272000D10509F09BCFDF91CF911F910F91FF90C1
:10273000EF90DF90CF90BF90AF909F900895CF9390
:10274000DF930E9442140E941D11C0E0D0E00E945D
:1027500013112097E1F30E940000F9CF1F920F920E
:102760000FB60F9211242F933F938F939F93AF93A4
:10277000BF938091770290917802A0917902B091F5
:102780007A0230917B020196A11DB11D232F2D5F8E
:102790002D3720F02D570196A11DB11D20937B02EE
:1027A0008093770290937802A0937902B0937A0293
:1027B0008091730290917402A0917502B09176029B
:1027C0000196A11DB11D8093730290937402A09392
:1027D0007502B0937602BF91AF919F918F913F9117
:1027E0002F910F900FBE0F901F9018959FB7F894E0
:1027F00020917302309174024091750250917602DB
:1028000086B5A89B06C08F3F21F02F5F3F4F4F4FEB
:102810005F4F9FBF542F432F322F2227280F311D88
:10282000411D511D82E0220F331F441F551F8A9501
:10283000D1F7B901CA010895EF92FF920F931F9348
:10284000CF93DF937B018C010E94F613EB010EC046
:102850000E94F6136C1B7D0B685E7340C8F30894EE
:10286000E108F10801091109C851DC4FE114F10434
:102870000105110569F7DF91CF911F910F91FF902D
:10288000EF900895789484B5826084BD84B58160AA
:1028900084BD85B5826085BD85B5816085BDEEE668
:1028A000F0E0808181608083E1E8F0E01082808147
:1028B00082608083808181608083E0E8F0E08081B5
:1028C00081608083E1EBF0E0808184608083E0EBD5
:1028D000F0E0808181608083EAE7F0E080818460BD
:1028E0008083808182608083808181608083808119
:1028F000806880831092C1000895982F8E3008F070
:102900009E509770809141018295880F880F807C3E
:10291000892B80937C0080917A00806480937A0078
:1029200080917A0086FDFCCF20917800409179005B
:10293000942F80E030E0282B392BC9010895CF93E4
:10294000DF93482F50E0CA01885E9A4EFC01349113
:102950004C5F5A4EFA018491882369F190E0880F08
:10296000991FFC01EA51FB4EA591B491FC01E05185
:10297000FB4EC591D491662351F42FB7F8948C91F6
:10298000932F909589238C93888189230BC0623083
:1029900061F42FB7F8948C91932F909589238C93A1
:1029A0008881832B88832FBF06C09FB7F8948C91B2
:1029B000832B8C939FBFDF91CF910895833071F06B
:1029C000843028F48130A1F0823021F514C08630A3
:1029D000B1F08730D1F08430E9F404C080918000F8
:1029E0008F7703C0809180008F7D80938000089551
:1029F00084B58F7702C084B58F7D84BD08958091A2
:102A0000B0008F778093B00008958091B0008F7DE3
:102A10008093B0000895FF920F931F93F62E482FD6
:102A200050E0CA01845D9A4EFC012491CA01885E7F
:102A30009A4EFC0114914C5F5A4EFA010491002306
:102A4000C9F0222319F0822F0E94DE14E02FF0E05B
:102A5000EE0FFF1FE051FB4EA591B4919FB7F89484
:102A6000FF2021F48C911095812302C08C91812B41
:102A70008C939FBF1F910F91FF9008952F923F92CB
:102A80004F925F926F927F928F929F92AF92BF927E
:102A9000CF92DF92EF92FF920F931F93CF93DF932A
:102AA000CDB7DEB7CA1BDB0B0FB6F894DEBF0FBE87
:102AB000CDBF09942A88398848885F846E847D84D4
:102AC0008C849B84AA84B984C884DF80EE80FD80D6
:102AD0000C811B81AA81B981CE0FD11D0FB6F8944C
:0E2AE000DEBF0FBECDBFED010895F894FFCF0D
:102AEE00252525646400252530256464002E0025E7
:102AFE00366420200020006B20006E3D25642000EF
:102B0E0042696720426F6220616E64204C6F766569
:102B1E006C79204D6572616C3D256420000F0702B3
:022B2E000101A3
:00000001FF
