:100000000C946E090C9496090C9496090C9496091C
:100010000C9496090C9496090C9496090C949609E4
:100020000C9496090C9496090C9496090C949609D4
:100030000C9496090C9496090C9496090C949609C4
:100040000C947F130C9496090C9496090C949609C1
:100050000C9496090C9496090C9496090C949609A4
:100060000C9496090C94960905A84CCDB2D44EB9BF
:100070003836A9020C50B9918688083CA6AAAA2A4B
:10008000BE000000803F00004910F0168804B42A2A
:1000900095A27D9EF3944491547515BA0080020C8C
:1000A000008048256F7B4DD2F9FC3CDF9E7CCE3F23
:1000B000EF4F92EFFBF73C0401044545C4714454F3
:1000C0004641EF73F5EDBACE49BCB67B963F4B9CEB
:1000D000D6EDDB4B3AC9AA5D9B24EFDFF67FD55600
:1000E000EB12B5F3BAD61177496ADBB7ADDABFAD1B
:1000F000DA56D2A9DC929C883449AB0000E080013A
:10010000B875DE1E4FCEB7C7BB3B4FDE73C95B0869
:1001100092202DE92A4942DF626DF1F6EF93F72430
:100120002C091F9F2746DBA3ADD0BEA8D4F6344EC2
:10013000DD9A2C499AAC0107AEEB000000100008D4
:10014000000800000000000000000002020202029D
:100150000202020202000000000000000101010191
:10016000010101010101010101010101010101017F
:100170000101010101010000000001080101090164
:10018000010105010105010101010105050101014F
:1001900001010101050100000000000F018096111E
:1001A00080FFB103012C2DB203012C2DB306012CCD
:1001B0002D012C2DB40107C003A20284C101C5C2C8
:1001C000020A00C3028A2AC4028AEEC5010E200078
:1001D0003601C83A0105022A040000007F2B040002
:1001E00000009F04E010021C07123732292D292538
:1001F0002B3900010310E110031D07062E2C292DB9
:100200002E2E373F0000021013800A29800A640056
:10021000C8002C01360140015E015E01AA01BE0149
:10022000E601E60104020E022C022C024A025402EC
:100230007202B402DC02F0020E030E032C0336033A
:100240005403540372037C03C803D203FA03040467
:100250002C0436045E04680486048604A404F004B6
:1002600018052205400554057C058605A405AE0544
:10027000CC05CC0518062C0678067806C406D806E8
:1002800024072407660770078E07D007F80744087D
:100290006208A408CC08180936096E098C09960969
:1002A000E209EC09140A1E0A460A500A780A820A70
:1002B000A00AA00ABE0A0A0B320B3C0B5A0B6E0BAB
:1002C000960BA00BBE0BC80BE60BE60B320C460CD4
:1002D0006E0C6E0C960CAA0CD20CD20CF00CFA0C14
:1002E000180D5A0D820D960DB40DBE0DE60DFA0DCA
:1002F000180E180E360E400E8C0E960EBE0EC80E40
:10030000F00EFA0E220F2C0F4A0F4A0F660FD39CE5
:100310000000EF7B24DD694A8631020003000400FF
:1003200005010600080009000A000B000C000E0081
:100330000F01100111011201140015001600170021
:1003400018001A001B001C001D011E0020002100C7
:1003500022002301240126002701280029012A0068
:100360002C002D012E002F0030003201330034010B
:1003700035013601380039003A003B003C000200EC
:100380000301040005010600080009010A000B0131
:100390000C000E000F0110011101120114001501D3
:1003A0001600170118001A001B011C001D011E0079
:1003B0002001210122002301240126002701280019
:1003C00029012A002C002D012E002F0130003200BF
:1003D0003300340035003600380039013A013B0162
:1003E0003C000200030004000500060008000900AC
:1003F0000A000B000C000E000F001000110012008C
:10040000140015011600170018001A001B011C002B
:100410001D001E00200021002200230024002600D1
:100420002700280029002A002C002D002E002F0173
:100430003000320133013401350136013800390012
:100440003A003B003C004702480249024A024B0284
:100450004702480149024A014B0204030A03100300
:1004600016031C03220328032E0334033A03470117
:10047000480249014A024B010403060208020A032A
:100480000C020E02100312021402160318021A02C2
:100490001C031E02200222032402260228032A0231
:1004A0002C022E03300232023403360238023A03A1
:1004B0003D003E003F004000410047024802490223
:1004C0004A024B023D003E013F014001410047020C
:1004D000480149024A014B0204030A0310031603B0
:1004E0001C03220328032E0334033A033D003E007D
:1004F0003F00400041004702480149014A014B02C8
:1005000004030A03100316031C03220328032E030B
:1005100034033A034702480249024A024B024702A7
:10052000480149024A014B0104030A031003160360
:100530001C03220328032E0334033A034701480215
:1005400049014A024B0204030A03100316031C0369
:10055000220328032E0334033A03470248014901CA
:100560004A014B014702480249024A024B02040376
:100570000A03100316031C03220328032E0334036B
:100580003A034702480149014A014B0104040604A9
:1005900008040A040C040E041004120414041604C3
:1005A00018041A041C041E04200422042404260433
:1005B00028042A042C042E043004320434043604A3
:1005C00038043A043D003E003F004001410004036E
:1005D0000A03100316031C03220328032E0334030B
:1005E0003A033D003E013F004001410047024802FE
:1005F00049014A014B013D003E013F0040004100DE
:100600004701480149024A024B0204030A0310034E
:1006100016031C03220328032E0334033A03470264
:10062000480249014A014B0104030A03100316035F
:100630001C03220328032E0334033A034701480214
:1006400049014A014B024702480149024A014B0253
:1006500004030A03100316031C03220328032E03BA
:1006600034033A034702480149014A024B0104039B
:100670000A03100316031C03220328032E0334036A
:100680003A034701480149014A014B01470148012A
:1006900049014A014B010403060208020A030C0245
:1006A0000E02100312021402160318021A021C038F
:1006B0001E02200222032402260228032A022C0200
:1006C0002E03300232023403360238023A033D016F
:1006D0003E003F01400141014701480149014A01F3
:1006E0004B013D003E003F004000410004030A036F
:1006F000100316031C03220328032E0334033A03BA
:100700003D013E013F0140014101470148024902CC
:100710004A024B014702480149014A014B020403C6
:100720000A03100316031C03220328032E033403B9
:100730003A033D003E003F004000410047024801AF
:1007400049024A024B023D003E013F014001410087
:1007500004030A03100316031C03220328032E03B9
:1007600034033A033D003E003F0040004100470291
:10077000480249024A024B024702480149024A0123
:100780004B0104030A03100316031C03220328036E
:100790002E0334033A034701480249014A024B023F
:1007A00004030A03100316031C03220328032E0369
:1007B00034033A034702480249024A024B02040446
:1007C000060408040A040C040E04100412041404A1
:1007D000160418041A041C041E0420042204240411
:1007E000260428042A042C042E0430043204340481
:1007F000360438043A043D013E003F014001410106
:100800004702480149024A014B0204030A0310034C
:1008100016031C03220328032E0334033A033D006E
:100820003E003F00400041004702480149014A01A3
:100830004B023D013E013F014001410104030A0317
:10084000100316031C03220328032E0334033A0368
:100850004701480249024A024B023D003E003F0068
:10086000400141004702480149024A014B0104038B
:100870000A03100316031C03220328032E03340368
:100880003A033D003E013F0040014100470148025C
:1008900049024A024B023D003E013F004000410038
:1008A00004030A03100316031C03220328032E0368
:1008B00034033A034702480149014A014B01470208
:1008C000480249024A024B0204030A0310031603BA
:1008D0001C03220328032E0334033A034702480172
:1008E00049014A014B010403060208020A030C02F3
:1008F0000E02100312021402160318021A021C033D
:100900001E02200222032402260228032A022C02AD
:100910002E03300232023403360238023A033D001D
:100920003E013F00400041004701480149014A01A2
:100930004B013D003E013F0040014100470148019D
:1009400049014A014B010403060508050A030C0589
:100950000E05100312051405160318051A051C03CD
:100960001E05200522032405260528032A052C053B
:100970002E03300532053403360538053A033D00B1
:100980003E003F00400141004701480149014A0142
:100990004B010403060508050A030C050E051003A8
:1009A00012051405160318051A051C031E0520055B
:1009B00022032405260528032A052C052E033005CD
:1009C00032053403360538053A033D003E003F004A
:1009D000400041004702480249024A024B013D00E3
:1009E0003E013F01400141004701480149014A01E0
:1009F0004B020403060508050A030C050E05100347
:100A000012051405160318051A051C031E052005FA
:100A100022032405260528032A052C052E0330056C
:100A200032053403360538053A033D003E003F00E9
:100A3000400041004702480249024A024B010403B8
:100A4000060508050A030C050E051003120514051A
:100A5000160318051A051C031E052005220324058C
:100A6000260528032A052C052E03300532053403FC
:100A7000360538053A034702480249024A024B024A
:100A80004701480149014A014B0204030A031003CC
:100A900016031C03220328032E0334033A034702E0
:100AA000480249024A024B020404060408040A04EC
:100AB0000C040E04100412041404160418041A047E
:100AC0001C041E04200422042404260428042A04EE
:100AD0002C042E04300432043404360438043A045E
:100AE0003D003E013F004000410004030A031003A3
:100AF00016031C03220328032E0334033A033D008C
:100B00003E013F00400141004701480149014A01BF
:100B10004B010405060508050A050C050E05100520
:100B200012051405160518051A051C051E052005D5
:100B300022052405260528052A052C052E05300545
:100B400032053405360538053A053D003E003F00C4
:100B5000400141004701480149014A014B0104039A
:100B60000A03100316031C03220328032E03340375
:100B70003A034701480149014A014B0104050605B2
:100B800008050A050C050E051005120514051605C5
:100B900018051A051C051E05200522052405260535
:100BA00028052A052C052E053005320534053605A5
:100BB00038053A053D003E003F0040014100040376
:100BC0000A03100316031C03220328032E03340315
:100BD0003A033D003E013F00400141004702480208
:100BE00049024A024B020405060508050A050C05E0
:100BF0000E05100512051405160518051A051C0525
:100C00001E05200522052405260528052A052C0594
:100C10002E05300532053405360538053A053D0008
:100C20003E013F00400041004701480249024A019D
:100C30004B0104030A03100316031C0322032803B9
:100C40002E0334033A034702480249024A024B0288
:100C50000405060508050A050C050E051005120514
:100C60001405160518051A051C051E052005220584
:100C70002405260528052A052C052E0530053205F4
:100C80003405360538053A0504030A031003160334
:100C90001C03220328032E0334033A0347024802AD
:100CA00049024A024B024702480149024A014B02EB
:100CB0000403060208020A030C020E0210031202C9
:100CC0001402160318021A021C031E022002220339
:100CD0002402260228032A022C022E0330023202AA
:100CE0003403360238023A033D003E013F00400122
:100CF00041004702480149014A014B023D003E01C3
:100D00003F004001410004030A03100316031C03C3
:100D1000220328032E0334033A033D003E003F0024
:100D2000400041004702480149014A014B01470286
:100D3000480249024A024B0204030A031003160345
:100D40001C03220328032E0334033A033D003E0014
:100D50003F00400041004702480149014A014B0160
:100D60003D003E013F014001410004030A0310031E
:100D700016031C03220328032E0334033A033D0009
:100D80003E003F00400041004702480249024A023B
:100D90004B024702480149024A014B0204030A037D
:100DA000100316031C03220328032E0334033A0303
:100DB0004702480149014A014B0204030A03100398
:100DC00016031C03220328032E0334033A034702AD
:100DD000480249024A024B020404060408040A04B9
:100DE0000C040E04100412041404160418041A044B
:100DF0001C041E04200422042404260428042A04BB
:100E00002C042E04300432043404360438043A042A
:100E10003D003E013F0040014100470248014902B8
:100E20004A014B0104030A03100316031C032203A7
:100E300028032E0334033A033D003E013F004001E6
:100E400041004701480249014A024B023D003E0071
:100E50003F004000410004030A03100316031C0373
:100E6000220328032E0334033A03470148014901B2
:100E70004A014B013D003E003F0040014100470157
:100E8000480149014A014B0104030A0310031603F8
:100E90001C03220328032E0334033A033D003E01C2
:100EA0003F00400141004701480149014A014B010F
:100EB0003D003E013F004000410004030A031003CF
:100EC00016031C03220328032E0334033A034702AC
:100ED000480149014A014B014702480249024A02BE
:100EE0004B0204030A03100316031C032203280306
:100EF0002E0334033A034702480149014A014B01DA
:100F00000403060208020A030C020E021003120276
:100F10001402160318021A021C031E0220022203E6
:100F20002402260228032A022C022E033002320257
:100F30003403360238023A033D003E003F004001D0
:100F400041014702480249024A024B023D013E016B
:100F50003F00400141014702480149024A014B025A
:100F600004030A03100316031C03220328032E03A1
:100F700034033A033D003E003F0040004100470279
:100F8000480149014A014B0204030A0310031603F6
:100F90001C03220328032E0334033A033D003E00C2
:100FA0003F00400041004701480249024A024B010C
:100FB0003D003E013F014001410047024801490117
:100FC0004A014B0204030A03100316031C03220305
:100FD00028032E0334033A033D003E003F00400047
:100FE00041004702480149014A014B0204030A0338
:100FF000100316031C03220328032E0334033A03B1
:101000004702480249024A024B024701480149028D
:101010004A014B0104030A03100316031C032203B5
:1010200028032E0334033A034702480249024A02C6
:101030004B020404060408040A040C040E04100401
:1010400012041404160418041A041C041E042004B8
:1010500022042404260428042A042C042E04300428
:1010600032043404360438043A043D003E003F00A4
:101070004001410104030A03100316031C03220369
:1010800028032E0334033A033D013E013F00400193
:1010900041014701480149014A014B013D003E0021
:1010A0003F00400041004701480149014A014B010E
:1010B00004030A03100316031C03220328032E0350
:1010C00034033A034701480149014A014B013D00FD
:1010D0003E003F004001410004030A0310031603D1
:1010E0001C03220328032E0334033A033D003E0170
:1010F0003F00400141004701480249024A024B01BA
:101100003D003E013F0040004100470248014901C7
:101110004A014B0204030A03100316031C032203B3
:1011200028032E0334033A034702480149024A02C6
:101130004B0204030A03100316031C0322032803B3
:101140002E0334033A034702480249024A024B0283
:101150004702480149024A014B0104030602080202
:101160000A030C020E0210031202140216031802E4
:101170001A021C031E022002220324022602280354
:101180002A022C022E0330023202340336023802C5
:101190003A033D003E003F00400141004701480244
:1011A00049014A024B023D003E013F00400141001F
:1011B00004030A03100316031C03220328032E034F
:1011C00034033A033D003E013F0040004100470226
:1011D000480249024A024B024702480149024A01B9
:1011E0004B0204030A03100316031C032203280303
:1011F0002E0334033A033D003E003F00400041000F
:101200004702480149014A014B023D003E013F01AE
:101210004001410004030A03100316031C032203C8
:1012200028032E0334033A033D003E003F004000F4
:1012300041004701480249024A024B024702480165
:1012400049024A014B0104030A03100316031C035D
:10125000220328032E0334033A03470148024902BC
:101260004A024B020A03100316031C03220328033D
:101270002E0334033A034702480149014A014B0156
:1012800000000000240027002A00000000002500C4
:1012900028002B0000000000230026002900040481
:1012A000040404040404020202020202030303030E
:1012B00003030102040810204080010204081020EA
:1012C00001020408102000000007000201000003D2
:1012D00004060000000000000000731011241FBE6F
:1012E000CFEFD8E0DEBFCDBF11E0A0E0B1E0ECEB86
:1012F000FEE202C005900D92A036B107D9F712E0C8
:10130000A0E6B1E001C01D92A03FB107E1F712E1F4
:10131000CCEDD2E104C02297FE010E942117CA3D04
:10132000D107C9F70E9470130C945C170C9400004D
:10133000AEE0B0E0EEE9F9E00C9433170D891E89B8
:1013400086E08C831A8309838FEF9FE79E838D83CA
:101350009E01275E3F4FCE0101966F89788DA901CE
:101360000E94BC092F813885020F131FF8011082DB
:101370002E96E4E00C944F17ABE0B0E0E2ECF9E01D
:101380000C9425173C012B015A01FC01178216828F
:10139000838181FD03C06FEF7FEFC6C19AE0892E84
:1013A0001E010894211C311CF3012381F20123FD4D
:1013B000859123FF81912F01882309F4B2C18532E1
:1013C00039F423FD859123FF81912F01853229F482
:1013D00090E0B3010E94AF0BE7CF982FFF24EE24DB
:1013E0009924FFE1FF15D0F09B3269F09C3228F47C
:1013F000903259F0933291F40EC09D3249F09033FF
:1014000069F441E024C052E0F52A84E0F82A28C0BB
:1014100098E0F92A25C0E0E1FE2A22C0F7FC29C0A5
:10142000892F80538A3070F4F6FE05C0989C902C6A
:101430001124980E15C0E89CE02C1124E80EF0E26F
:10144000FF2A0EC09E3229F4F6FC6BC140E4F42A58
:1014500007C09C3619F450E8F52A02C0983649F4C2
:10146000F20123FD959123FF91912F01992309F01A
:10147000B8CF892F8554833018F08052833038F4E8
:1014800044E050E0A40EB51E5FE359830FC09336CD
:1014900031F0933779F0933509F056C020C0F5014B
:1014A0008081898342E050E0A40EB51E610101E015
:1014B00010E012C0F501C080D180F6FC03C06FEFD0
:1014C0007FEF02C0692D70E042E050E0A40EB51E2F
:1014D000C6010E94A40B8C015FE7F52214C0F50140
:1014E000C080D180F6FC03C06FEF7FEF02C0692D92
:1014F00070E042E050E0A40EB51EC6010E94990BB8
:101500008C0150E8F52AF3FE07C01AC080E290E093
:10151000B3010E94AF0BEA948E2D90E008171907D3
:10152000A8F30EC0F601F7FC8591F7FE81916F01DB
:1015300090E0B3010E94AF0BE110EA94015010401B
:101540000115110579F7EAC0943611F0993669F55D
:10155000F7FE08C0F501208131814281538184E08A
:1015600090E00AC0F501808191819C01442737FDFC
:101570004095542F82E090E0A80EB91E9FE6F92214
:1015800057FF09C050954095309521953F4F4F4FDB
:101590005F4FE0E8FE2ACA01B901A1012AE030E06C
:1015A0000E94DB0BD82ED21840C0953729F41F2D8E
:1015B0001F7E2AE030E01DC01F2D197F9F3661F08D
:1015C000903720F4983509F0ACC00FC0903739F04F
:1015D000983709F0A6C004C028E030E00AC01061C6
:1015E00014FD146020E130E004C014FD166020E119
:1015F00032E017FF08C0F50160817181828193811B
:1016000044E050E008C0F50180819181BC0180E098
:1016100090E042E050E0A40EB51EA1010E94DB0B59
:10162000D82ED2188FE7F82EF122F6FE0BC05EEF0F
:10163000F522D91438F4F4FE07C0F2FC05C08FEE91
:10164000F82202C01D2D01C0192DF4FE0DC0FE01AF
:10165000ED0DF11D8081803319F499EEF92208C057
:101660001F5FF2FE05C003C08F2D867809F01F5F53
:101670000F2DF3FC14C0F0FE0FC01E1510F09D2CB2
:101680000BC09D2C9E0C911A1E2D06C080E290E08E
:10169000B3010E94AF0B1F5F1E15C0F304C01E15DF
:1016A00010F4E11A01C0EE2404FF0FC080E390E0C3
:1016B000B3010E94AF0B02FF1DC001FD03C088E70C
:1016C00090E00EC088E590E00BC0802F867891F006
:1016D00001FF02C08BE201C080E2F7FC8DE290E0E6
:1016E000B3010E94AF0B06C080E390E0B3010E94FB
:1016F000AF0B9A94D914C0F3DA94F101ED0DF11DFA
:10170000808190E0B3010E94AF0BDD20A9F706C0F5
:1017100080E290E0B3010E94AF0BEA94EE20C1F7A3
:1017200043CEF30166817781CB012B96E2E10C94E5
:101730004117FC010590615070400110D8F7809569
:1017400090958E0F9F1F0895FC016150704001908D
:101750000110D8F7809590958E0F9F1F08950F93D5
:101760001F93CF93DF938C01EB018B8181FF1BC013
:1017700082FF0DC02E813F818C819D812817390702
:1017800064F4E881F9810193F983E88306C0E88570
:10179000F985802F0995892B31F48E819F810196DF
:1017A0009F838E8302C00FEF1FEFC801DF91CF919F
:1017B0001F910F910895FA01AA27283051F1203185
:1017C00081F1E8946F936E7F6E5F7F4F8F4F9F4FD5
:1017D000AF4FB1E03ED0B4E03CD0670F781F891F17
:1017E0009A1FA11D680F791F8A1F911DA11D6A0FE5
:1017F000711D811D911DA11D20D009F468943F9198
:101800002AE0269F11243019305D3193DEF6CF0196
:101810000895462F4770405D4193B3E00FD0C9F75C
:10182000F6CF462F4F70405D4A3318F0495D31FDC9
:101830004052419302D0A9F7EACFB4E0A69597951C
:10184000879577956795BA95C9F7009761057105F2
:1018500008959B01AC010A2E06945795479537953C
:101860002795BA95C9F7620F731F841F951FA01D96
:101870000895882319F48CB5806202C08CB58F7DE1
:101880008CBD08959CB5937F982B9CBD08952CB575
:10189000382F33702C7F322B3CBD2DB590E09595C1
:1018A00087959595879581702E7F822B8DBD0895A4
:1018B0008AE061E00E94DC148AE061E00E9470141A
:1018C0008CB580618CBD8CB580648CBD8DE061E091
:1018D0000E9470148BE061E00E9470140895FC0176
:1018E00023E0F695E7952A95E1F7EA57FF4FE49153
:1018F0008770907021E030E002C0220F331F8A957C
:10190000E2F78E2F822308952F923F924F925F929B
:101910006F927F928F929F92AF92BF92CF92DF92FF
:10192000EF92FF920F931F93DF93CF93CDB7DEB764
:1019300028970FB6F894DEBF0FBECDBFD82E6983AF
:101940003A012C833D8358012701CA828B826F5F45
:101950006E83E1E02E2E312CD301EC91E052BFE0FA
:10196000EB9FA0011124F0E0E55CFE4FE491EE2E28
:10197000FF24C701837090708130910519F48C8128
:101980009D8103C0029719F0C2018C0101C085013D
:10199000E2FC02C0898001C08E80EA81EE2309F456
:1019A00048C00A151B0509F444C09A012E5F3F4F39
:1019B000DA01CC24C39499249394BA01645F7F4FD5
:1019C00078876F83FD0173E0F695E7957A95E1F7E7
:1019D000EA57FF4FE491CD0187709070B10102C0CA
:1019E000660F771F8A95E2F7E62309F09924F9013B
:1019F00063E0F695E7956A95E1F7EA57FF4FE491C2
:101A0000C90187709070B10102C0660F771F8A9577
:101A1000E2F7E62309F0CC242D5F3F4F8F819885B4
:101A2000A817B90711F01396CDCF992019F0DA94C1
:101A300001C0CC248D2D682D98010E9490119B81AE
:101A4000992351F0A3E0DA0EE3FCD394E4FC0EC03A
:101A5000C20125015C010AC0BA81BB2329F0CC2058
:101A600019F0E3E0DE0E02C0F4E0DF0E0894611C22
:101A7000711CD3018C91882309F06ECF28960FB684
:101A8000F894DEBF0FBECDBFCF91DF911F910F91B4
:101A9000FF90EF90DF90CF90BF90AF909F908F908E
:101AA0007F906F905F904F903F902F900895DC0152
:101AB0001296ED91FC911397808115969C91159744
:101AC000892B8083ED91FC911197908114968C91D4
:101AD00014978095892380836EBD0DB407FEFDCFDA
:101AE000ED91FC911197808114969C91892B8083B4
:101AF00008950F93DC011296ED91FC91139790815C
:101B000015968C9115978095892380838AE28EBDE6
:101B10000DB407FEFDCF1296ED91FC9113978081D5
:101B200015969C911597892B80831EBC0DB407FEDA
:101B3000FDCF6EBD0DB407FEFDCF1EBC0DB407FE7C
:101B4000FDCF2EBD0DB407FEFDCF1296ED91FC9199
:101B50001397908115968C91159780958923808392
:101B60008BE28EBD0DB407FEFDCF1296ED91FC9178
:101B70001397808115969C911597892B80831EBCA5
:101B80000DB407FEFDCF4EBD0DB407FEFDCF1EBC4C
:101B90000DB407FEFDCF0EBD0DB407FEFDCF1296AE
:101BA000ED91FC911397908115968C9180958923E6
:101BB00080838CE28EBD0DB407FEFDCF0F9108959A
:101BC000FF920F931F93CF93DF93EC01562F042FB7
:101BD000F22E132FE881F98190818C8180958923E1
:101BE0008083CE01252F0E94790DEA81FB818081BF
:101BF0009D81892B80831EBD0DB407FEFDCFFEBCE9
:101C00000DB407FEFDCFE881F98180819C81892B8D
:101C10008083DF91CF911F910F91FF900895DF9204
:101C2000EF92FF920F931F93CF93DF93EC01762FE8
:101C3000542F7901D02EE881F98190818C81809593
:101C400089238083CE01272F5F5F052F0E94790DA6
:101C5000EA81FB8180819D81892B8083FEBC0DB44C
:101C600007FEFDCFEEBC0DB407FEFDCF1EBD0DB4CB
:101C700007FEFDCFDEBC0DB407FEFDCFE881F98184
:101C800080819C81892B8083DF91CF911F910F915F
:101C9000FF90EF90DF900895AF92BF92CF92DF92C6
:101CA000EF92FF920F931F93CF93DF93EC015901B3
:101CB0006801E881F98190818C81809589238083F6
:101CC000262F21502A0D042F01500C0DCE010E9409
:101CD000790DEA81FB8180819D81892B8083CA9C5B
:101CE000C001CB9C900DDA9C900D112409C0FEBC64
:101CF0000DB407FEFDCFEEBC0DB407FEFDCF01977E
:101D00000097A9F7E881F98180819C81892B8083E4
:101D1000DF91CF911F910F91FF90EF90DF90CF90C7
:101D2000BF90AF900895EF92FF920F931F937B01A6
:101D300060E070E040E050E020E830E000EA10E0D1
:101D40000E944C0E1F910F91FF90EF900895AF925B
:101D5000BF92CF92DF92EF92FF920F931F93CF9398
:101D6000DF93EC01A22EB02EE881F98190818C8165
:101D7000809589238083262F21502A0D042F01501E
:101D80000B0DCE010E94790DEA81FB8180819D813E
:101D9000892B8083BA9CB02C11241BC087010F5F54
:101DA0001F4FC7010E946F0C882349F0DEBC0DB4A1
:101DB00007FEFDCFCEBC0DB407FEFDCF08C01EBC94
:101DC0000DB407FEFDCF1EBC0DB407FEFDCFBA94C7
:101DD0007801BB2019F7E881F98180819C81892BEA
:101DE0008083DF91CF911F910F91FF90EF90DF9053
:101DF000CF90BF90AF900895AF92BF92CF92DF92F5
:101E0000EF92FF920F931F93CF93DF938C01FB010F
:101E1000EB012196A49051C0AE014F5F5F4FFE01D0
:101E20002491D8011296ED91FC911397908115960B
:101E30008C911597809589238083ED91FC91119762
:101E4000908114968C918095892380832EBD0DB44A
:101E500007FEFDCFD801ED91FC911197808114967A
:101E60009C91892B80836A010894C11CD11CFA01C2
:101E7000B4904FE7E42EEB20E601FE2C08C0FE01F3
:101E80002196E491C8016E2F0E94570DFA94FF200D
:101E9000B1F7E601CE0DD11DB7FE0EC0FE01849153
:101EA000682F70E06F3F710511F464EF71E02196C7
:101EB00080E090E00E94ED13AA94AA2009F0ACCF34
:101EC000DF91CF911F910F91FF90EF90DF90CF9016
:101ED000BF90AF9008950F931F93CF93DF93EC01C2
:101EE0008B0189E061E00E9470148AE061E00E9449
:101EF000701448EA52E1FA018491282F30E0220F51
:101F0000331F26573D4EF90185919491998388831B
:101F100041505040FA018491E82FF0E0EE0FFF1F8E
:101F2000E657FD4E859194919B838A83ECEBF2E119
:101F300084918C833197E491ED830E94580C80E06A
:101F40000E94470C81E00E94390C80E00E94420C04
:101F5000E881F98190818C818095892380830115A6
:101F6000110521F0CE01B8010E94FC0EDF91CF9146
:101F70001F910F910895CF93DF93EC016BE971E00E
:101F80000E946B0FCE0166ED71E00E94FC0ECE0147
:101F900063EE71E00E94FC0EEA81FB8190818D81ED
:101FA000809589238083E881F98190818C81809557
:101FB0008923808386E38EBD0DB407FEFDCFE881C3
:101FC000F98180819C81892B8083CE0160EC0E9405
:101FD000570DDF91CF91089582E10E944E149093A6
:101FE0005C0180935B010E94DF1108951F93CF93E2
:101FF000DF9380E691E00E94BB0F80E691E060E015
:1020000070E00E94930E0E94DF1110E0812F62E0C9
:102010000E9470141F5F1830C9F788E061E00E94C9
:1020200070148EE061E00E9470148FE061E00E9405
:10203000701480E161E00E94701481E161E00E940F
:1020400070148EE061E00E94DC1480E160E00E9488
:10205000DC1481E160E00E94DC14C8EBD1E020E0F8
:1020600030E0F901E256FD4EE491F0E0EE0FFF1F83
:10207000EC56FD4E8591949189939993F901EE5414
:10208000FD4EE491D901AC52BE4FEC932F5F3F4F10
:102090002E30310531F781E08093E201DF91CF915D
:1020A0001F910895EF92FF920F931F93FC01DB01A4
:1020B0002483E582F682078310878C9180831196B2
:1020C0008C911197818312968C91828380915A0111
:1020D0008383820F840F80935A0111861F910F9181
:1020E000FF90EF900895CF92DF92EF92FF920F93BF
:1020F0001F9348E6C42E41E0D42EC60160E071E093
:1021000041E028E13FEFE32E3FEFF32E012D112DAB
:102110000E945210C6010A9664E071E040E028E097
:10212000BFEEEB2EBBE7FB2E012D112D0E945210AE
:10213000C601449667E071E04AE028E00E94521030
:10214000C6014E966BE071E041E024E1A0EEEA2E7C
:10215000A7E0FA2E012D112D0E945210C60188967B
:102160006FE071E040E02AE0FFE1EF2EF12C012D5D
:10217000112D0E945210C601C29662E171E040E04A
:102180002AE0E4E2EE2EEDEDFE2E012D112D0E944F
:102190005210C601CC9665E171E040E02AE05FE1B3
:1021A000E52EF12C012D112D0E9452108EEA91E0A6
:1021B00068E171E040E02AE034E2E32E3DEDF32EE9
:1021C000012D112D0E9452101F910F91FF90EF9041
:1021D000DF90CF9008956F927F928F92AF92CF92BF
:1021E000EF92FF920F931F93DF93CF93CDB7DEB79C
:1021F000A0970FB6F894DEBF0FBECDBF1092670157
:10220000109266018091D5029091D602A091D702DA
:10221000B091D8020196A11DB11D8093D502909373
:10222000D602A093D702B093D8020197A109B109B1
:102230002DB73EB7285030400FB6F8943EBF0FBEC2
:102240002DBF4DB75EB74F5F5F4F3E010894611CD5
:10225000711CEDB7FEB77282618225E331E0FA01AD
:102260003383228384839583A683B7830E9498094E
:102270002DB73EB7285F3F4F0FB6F8943EBF0FBE55
:102280002DBF83E06EE4A3012FEE3BE70FEE1BE7CB
:10229000FFEEEF2EFBE7FF2ECC24AA2488240E9419
:1022A000840C00D000D000D0EDB7FEB73196ADB7AA
:1022B000BEB712967C926E9211978CE391E0938355
:1022C000828380915B0190915C01958384830E945D
:1022D0009809EDB7FEB736960FB6F894FEBF0FBE5D
:1022E000EDBF83E065E5A30124E23DED0FEF1FEFB5
:1022F000E6E5EE2EEBEFFE2E0E94840CA0960FB6C4
:10230000F894DEBF0FBECDBFCF91DF911F910F912B
:10231000FF90EF90CF90AF908F907F906F90089547
:10232000CF92DF92EF92FF920F931F93782FE62FB9
:102330007A01690180E691E0672F70E04E2F50E04E
:1023400023E030E005E010E00E94A70E1F910F91FE
:10235000FF90EF90DF90CF900895EF92FF920F9350
:102360001F93382FA42F022F10E0E62FF0E0E01B80
:10237000F10B0F5F1F4FE0906601F090670180E660
:1023800091E0632F70E0AF012A2F30E00E944C0EE5
:102390001F910F91FF90EF9008950F931F93782F47
:1023A000E62F8A01209166013091670180E691E075
:1023B000672F4E2F0E940F0E1F910F9108955F926D
:1023C0006F927F928F929F92AF92BF92CF92DF9245
:1023D000EF92FF920F931F93CF93DF938091DA02D6
:1023E000882341F01092DA028091D90291E0892786
:1023F0008093D9020E94EB1080915D01882309F43B
:1024000031C010925D0180E090E010E0E12FF0E03B
:10241000EE0FFF1FE25FFD4FE590F490EC011BC053
:10242000FE01E65EFC4F4491CE01855E9C4FFC01AF
:10243000849190E0880F991F825F9C4FFC01259149
:102440003491309367012093660180E691E0612F1B
:102450000E94E00D2296CE15DF0510F31F5FC70125
:102460001038A1F660915B0170915C0180E090E012
:102470000E94A0152FE632E143E85AE30E942E168F
:102480004B015C01E090E302F090E4020091E50270
:102490001091E602CCE5D2E0DD246D2D70E080E005
:1024A00090E00E94A0159B01AC01C501B4010E94FF
:1024B0002E169B01AC01C801B7010E9410150E94A5
:1024C000911620E030E048ED51E40E942E160E9463
:1024D0007415655E6993D394F9E7DF16F1F6C801C8
:1024E000B7012FE832EC45EF5CE30E9410156093D2
:1024F000E3027093E4028093E5029093E60233EEE8
:10250000E32E31E0F32E0AE112E0C0E0D0E02AE34E
:10251000522E66246A94762CFE01E45AFD4F808187
:10252000C52CC81AF7014081C41609F450C097E0C1
:10253000D92EDC0EC801F801659174910296FC0158
:10254000259134911092670110926601CB0118C059
:10255000FC01E65EFC4FE491E41789F4855E9C4F34
:10256000FC018491E82FF0E0EE0FFF1FE25FFC4FCB
:1025700085919491909367018093660104C00296BF
:102580008217930728F38C2D90E0841B9109019703
:1025900039F48D2D642F4FEF5FEF0E94CD1115C0E0
:1025A000209166013091670180E691E06D2D0E94D7
:1025B000E00D709267016092660180E691E06D2DFA
:1025C0004C2D2FEF3FEF0E94E00DF701C0822196C6
:1025D0000894E11CF11C0E5F1F4FC937D10509F0AB
:1025E0009BCF6091E3027091E4028091E5029091AB
:1025F000E60220E030E040E850E40E942E166B0135
:102600007C01C1E7D1E010E0612F70E080E090E054
:102610000E94A0159B01AC01C501B4010E942E16B9
:1026200020E030E040E851E40E942E169B01AC010E
:10263000C701B6010E9410150E94911620E030E0FB
:1026400048EC51E40E942E160E947415605E688367
:102650001F5F2A961830C1F680915E01882311F021
:1026600010925E010BED12E0CBE6D1E0BAE9EB2E61
:10267000FE80F801208138814981F21648F41092D9
:1026800067011092660143506E2D6F192F190CC00F
:102690008A819B81909367018093660143506E2DE0
:1026A000621BFF2DF21B2F2F832F8F5F0E94AD1116
:1026B000F801F1928F012A96F2E0033E1F07C1F65E
:1026C000DF91CF911F910F91FF90EF90DF90CF900E
:1026D000BF90AF909F908F907F906F905F90089584
:1026E000CF93DF930E9413140E94F60FC0E0D0E056
:1026F0000E94EC0F2097E1F30E940000F9CF1F9297
:102700000F920FB60F9211242F933F938F939F93A5
:10271000AF93BF938091EB029091EC02A091ED02F8
:10272000B091EE023091EF020196A11DB11D232F51
:102730002D5F2D3720F02D570196A11DB11D20933F
:10274000EF028093EB029093EC02A093ED02B09322
:10275000EE028091E7029091E802A091E902B09127
:10276000EA020196A11DB11D8093E7029093E80251
:10277000A093E902B093EA02BF91AF919F918F912C
:102780003F912F910F900FBE0F901F9018959FB7FC
:10279000F8942091E7023091E8024091E9025091CB
:1027A000EA0286B5A89B06C08F3F21F02F5F3F4FFE
:1027B0004F4F5F4F9FBF542F432F322F2227280F99
:1027C000311D411D511D82E0220F331F441F551F33
:1027D0008A95D1F7B901CA010895EF92FF920F933C
:1027E0001F93CF93DF937B018C010E94C713EB01F2
:1027F0000EC00E94C7136C1B7D0B685E7340C8F34C
:102800000894E108F10801091109C851DC4FE114ED
:10281000F1040105110569F7DF91CF911F910F9127
:10282000FF90EF900895789484B5826084BD84B55C
:10283000816084BD85B5826085BD85B5816085BDBB
:10284000EEE6F0E0808181608083E1E8F0E01082D4
:10285000808182608083808181608083E0E8F0E015
:10286000808181608083E1EBF0E0808184608083FF
:10287000E0EBF0E0808181608083EAE7F0E0808136
:102880008460808380818260808380818160808396
:102890008081806880831092C1000895982F8E30C7
:1028A00008F09E50977080915F018295880F880F85
:1028B000807C892B80937C0080917A008064809357
:1028C0007A0080917A0086FDFCCF209178004091BB
:1028D0007900942F80E030E0282B392BC90108952E
:1028E000CF93DF93482F50E0CA018E549D4EFC01D8
:1028F000349142565D4EFA018491882369F190E04B
:10290000880F991FFC01E058FD4EA591B491FC0180
:10291000E657FD4EC591D491662351F42FB7F89434
:102920008C91932F909589238C93888189230BC058
:10293000623061F42FB7F8948C91932F909589238E
:102940008C938881832B88832FBF06C09FB7F89410
:102950008C91832B8C939FBFDF91CF91089583300F
:1029600071F0843028F48130A1F0823021F514C058
:102970008630B1F08730D1F08430E9F404C0809122
:1029800080008F7703C0809180008F7D80938000CE
:10299000089584B58F7702C084B58F7D84BD089576
:1029A0008091B0008F778093B00008958091B0003F
:1029B0008F7D8093B0000895FF920F931F93F62EA2
:1029C000482F50E0CA018A539D4EFC012491CA0150
:1029D0008E549D4EFC01149142565D4EFA010491B5
:1029E0000023C9F0222319F0822F0E94AF14E02F98
:1029F000F0E0EE0FFF1FE657FD4EA591B4919FB793
:102A0000F894FF2021F48C911095812302C08C91C1
:102A1000812B8C939FBF1F910F91FF900895505869
:102A2000BB27AA270ED0E0C0D1D030F0D6D020F0FE
:102A300031F49F3F11F41EF4C6C00EF4E095E7FB9D
:102A4000BCC0E92FE2D080F3BA176207730784078E
:102A5000950718F071F49EF5FAC00EF4E0950B2E70
:102A6000BA2FA02D0B01B90190010C01CA01A001E0
:102A70001124FF27591B99F0593F50F4503E68F13B
:102A80001A16F040A22F232F342F4427585FF3CF7C
:102A9000469537952795A795F0405395C9F77EF44D
:102AA0001F16BA0B620B730B840BBAF09150A1F096
:102AB000FF0FBB1F661F771F881FC2F70EC0BA0F1C
:102AC000621F731F841F48F4879577956795B795A4
:102AD000F7959E3F08F0B3CF9395880F08F099279C
:102AE000EE0F97958795089598D088F09F5790F0AE
:102AF000B92F9927B751A0F0D1F0660F771F881F23
:102B0000991F1AF0BA95C9F712C0B13081F09FD061
:102B1000B1E008959CC0672F782F8827B85F39F0FF
:102B2000B93FCCF3869577956795B395D9F73EF481
:102B300090958095709561957F4F8F4F9F4F089529
:102B4000E89409C097FB3EF4909580957095619547
:102B50007F4F8F4F9F4F9923A9F0F92F96E9BB27FD
:102B60009395F695879577956795B795F111F8CF79
:102B7000FAF4BB0F11F460FF1BC06F5F7F4F8F4FE4
:102B80009F4F16C0882311F096E911C0772321F0DA
:102B90009EE8872F762F05C0662371F096E8862F72
:102BA00070E060E02AF09A95660F771F881FDAF7C9
:102BB000880F9695879597F9089597F99F6780E80C
:102BC00070E060E008959FEF80EC089500240A947F
:102BD0001616170618060906089500240A941216F8
:102BE0001306140605060895092E0394000C11F42B
:102BF000882352F0BB0F40F4BF2B11F460FF04C0D8
:102C00006F5F7F4F8F4F9F4F089557FD9058440F30
:102C1000551F59F05F3F71F04795880F97FB991F3B
:102C200061F09F3F79F087950895121613061406F8
:102C3000551FF2CF4695F1DF08C016161706180685
:102C4000991FF1CF86957105610508940895E89460
:102C5000BB2766277727CB0197F908950BD0C4CF00
:102C6000B5DF28F0BADF18F0952309F0A6CFABCF77
:102C70001124EECFCADFA0F3959FD1F3950F50E05A
:102C8000551F629FF001729FBB27F00DB11D639F1E
:102C9000AA27F00DB11DAA1F649F6627B00DA11DC4
:102CA000661F829F2227B00DA11D621F739FB00D6A
:102CB000A11D621F839FA00D611D221F749F3327DA
:102CC000A00D611D231F849F600D211D822F762F73
:102CD0006A2F11249F5750408AF0E1F088234AF070
:102CE000EE0FFF1FBB1F661F771F881F91505040BC
:102CF000A9F79E3F510570F060CFAACF5F3FECF37C
:102D0000983EDCF3869577956795B795F795E795A7
:102D10009F5FC1F7FE2B880F911D9695879597F9B8
:102D200008959F9305D00F9007FCEE5F31C04BCF05
:102D300074DFE8F3E894EFEFBB273FE048EC5FE790
:102D40006B3D73078407950708F1FF279F57B25A19
:102D50006A4D7F40894CF04032F4BE556542704F59
:102D60008643FF4F0894EE1F915030F0BB0F661F53
:102D7000771F881FFF1FEBCF9EE7882332F0BB0F22
:102D8000661F771F881F9A95C1F79395E09511C02C
:102D9000EF93E0FF06C0A2EA2AED3FE049EC5FEBCB
:102DA00050DE22DF0F90039401FC9058E8E6F0E03B
:102DB00010C09F3F49F0915028F48695779567950C
:102DC000B7959F5F80389F4F880F9695879597F9A5
:102DD00008959F938F937F936F93FF93EF939B013E
:102DE000AC013CDFEF91FF9105D02F913F914F91C6
:102DF0005F9134CFDF93CF931F930F93FF92EF92A6
:102E0000DF927B018C01689405C0DA2EEF0132DF7E
:102E1000FE01E894A5912591359145915591AEF328
:102E2000EF010FDEFE019701A801DA9479F7DF9038
:102E3000EF90FF900F911F91CF91DF910895EE0FCA
:102E4000FF1F0590F491E02D09942F923F924F922D
:102E50005F926F927F928F929F92AF92BF92CF922A
:102E6000DF92EF92FF920F931F93CF93DF93CDB733
:102E7000DEB7CA1BDB0B0FB6F894DEBF0FBECDBFAB
:102E800009942A88398848885F846E847D848C847C
:102E90009B84AA84B984C884DF80EE80FD800C8185
:102EA0001B81AA81B981CE0FD11D0FB6F894DEBF68
:0C2EB0000FBECDBFED010895F894FFCFD8
:102EBC00564F4C00424C0042522000535542004C9D
:102ECC004C004C4800524C005248002525256464A7
:102EDC0000252530256464002E0025366420200052
:102EEC0020006B20006E3D256C6420004269672039
:102EFC00426F6220616E64204C6F76656C79204D58
:102F0C006572616C323D256420000A3200010101BA
:00000001FF
